:020000040800F2
:1000000000000220FD3800084D3900084D39000875
:100010004D3900084D3900084D3900080000000036
:100020000000000000000000000000004D39000842
:100030004D390008000000004D390008B50D0008DA
:100040004D3900084D3900084D3900084D39000878
:100050004D3900084D3900084D3900084D39000868
:100060004D3900084D3900084D3900084D39000858
:100070004D3900084D3900084D3900084D39000848
:100080004D3900084D3900084D3900084D39000838
:100090004D3900084D3900084D3900084D39000828
:1000A0004D3900084D3900084D3900084D39000818
:1000B0004D3900084D3900084D3900084D39000808
:1000C0004D3900084D3900084D3900084D390008F8
:1000D0004D3900084D390008BD0D00084D390008A4
:1000E0004D3900084D3900084D3900084D390008D8
:1000F0004D3900084D3900084D3900084D390008C8
:100100004D3900084D3900084D3900084D390008B7
:100110004D3900084D3900084D3900084D390008A7
:100120004D3900084D3900084D3900084D39000897
:100130004D3900084D3900084D3900084D39000887
:100140004D3900084D3900084D3900084D39000877
:100150004D3900084D3900084D3900084D39000867
:100160004D3900084D3900084D3900084D39000857
:100170004D3900084D3900084D39000800000000D5
:080180004D3900084D3900085B
:1001900010B5054C237833B9044B13B10448AFF3C1
:1001A00000800123237010BD6C00002000000000BF
:1001B000B04D000808B5034B1BB103490348AFF32A
:1001C000008008BD0000000070000020B04D000855
:1001D00010F8012B11F8013B012A28BF9A42F7D0F1
:1001E000D01A7047034613F8012B002AFBD1181AC6
:1001F000013870470000000000000000000000000F
:1002000001F0FF01102A2BDB10F0070F08D010F8C7
:10021000013B013A8B422DD010F0070F42B3F6D1CB
:10022000F0B441EA012141EA014122F007047FF0E4
:1002300000070023F0E80256083C85EA010586EA3B
:10024000010685FA47F5A3FA87F586FA47F6A5FA77
:1002500087F68EB9EED1F0BC01F0FF0102F0070283
:1002600032B110F8013B013A83EA010313B1F8D12E
:100270000020704701387047002D06BF354603380F
:10028000073815F0010F07D1013015F4807F02BF48
:10029000013015F4C03F0130F0BC0138704700BF99
:1002A00080F0004002E000BF81F0004142001FBF2B
:1002B0005FEA410392EA030F7FEA226C7FEA236C34
:1002C0006AD04FEA1262D2EB1363C1BFD218414029
:1002D00048404140B8BF5B42192B88BF704710F0BF
:1002E000004F40F4000020F07F4018BF404211F062
:1002F000004F41F4000121F07F4118BF494292EACA
:10030000030F3FD0A2F1010241FA03FC10EB0C00F5
:10031000C3F1200301FA03F100F0004302D5494282
:1003200060EB4000B0F5000F13D3B0F1807F06D32F
:1003300040084FEA310102F10102FE2A51D2B1F127
:10034000004F40EBC25008BF20F0010040EA03001C
:100350007047490040EB0000013A28BFB0F5000F9C
:10036000EDD2B0FA80FCACF1080CB2EB0C0200FA52
:100370000CF0AABF00EBC25052421843BCBFD040A1
:100380001843704792F0000F81F4000106BF80F41B
:1003900000000132013BB5E74FEA41037FEA226CDE
:1003A00018BF7FEA236C21D092EA030F04D092F0A9
:1003B000000F08BF0846704790EA010F1CBF0020DD
:1003C000704712F07F4F04D1400028BF40F000403A
:1003D000704712F100723CBF00F50000704700F05A
:1003E000004343F0FE4040F4000070477FEA226281
:1003F00016BF08467FEA23630146420206BF5FEA52
:10040000412390EA010F40F4800070474FF0000351
:1004100004E000BF10F0004348BF40425FEA000C18
:1004200008BF704743F0964301464FF000001CE0C0
:1004300050EA010208BF70474FF000030AE000BF16
:1004400050EA010208BF704711F0004302D5404254
:1004500061EB41015FEA010C02BF844601460020C6
:1004600043F0B64308BFA3F18053A3F50003BCFAE1
:100470008CF2083AA3EBC25310DB01FA02FC63448E
:1004800000FA02FCC2F12002BCF1004F20FA02F295
:1004900043EB020008BF20F00100704702F1200288
:1004A00001FA02FCC2F1200250EA4C0021FA02F2E9
:1004B00043EB020008BF20EADC7070474FF0FF0CEE
:1004C0001CEAD0521EBF1CEAD15392EA0C0F93EAE9
:1004D0000C0F6FD01A4480EA010C400218BF5FEA8B
:1004E00041211ED04FF0006343EA501043EA5111FE
:1004F000A0FB01310CF00040B1F5000F3EBF4900F8
:1005000041EAD3715B0040EA010062F17F02FD2AFB
:100510001DD8B3F1004F40EBC25008BF20F00100DE
:10052000704790F0000F0CF0004C08BF49024CEAF5
:10053000502040EA51207F3AC2BFD2F1FF0340EA87
:10054000C250704740F400004FF00003013A5DDCF8
:1005500012F1190FDCBF00F000407047C2F1000239
:10056000410021FA02F1C2F1200200FA02FC5FEA26
:10057000310040F1000053EA4C0308BF20EADC7070
:10058000704792F0000F00F0004C02BF400010F4E2
:10059000000F013AF9D040EA0C0093F0000F01F08F
:1005A000004C02BF490011F4000F013BF9D041EAB1
:1005B0000C018FE70CEAD15392EA0C0F18BF93EAB3
:1005C0000C0F0AD030F0004C18BF31F0004CD8D1DD
:1005D00080EA010000F00040704790F0000F17BF64
:1005E00090F0004F084691F0000F91F0004F14D0AA
:1005F00092EA0C0F01D142020FD193EA0C0F03D102
:100600004B0218BF084608D180EA010000F0004004
:1006100040F0FE4040F40000704740F0FE4040F4DF
:10062000400070474FF0FF0C1CEAD0521EBF1CEA7E
:10063000D15392EA0C0F93EA0C0F69D0A2EB03029C
:1006400080EA010C49024FEA402037D04FF0805336
:1006500043EA111143EA10130CF000408B4238BFFB
:100660005B0042F17D024FF4000C8B4224BF5B1A09
:1006700040EA0C00B3EB510F24BFA3EB510340EA57
:100680005C00B3EB910F24BFA3EB910340EA9C0005
:10069000B3EBD10F24BFA3EBD10340EADC001B0175
:1006A00018BF5FEA1C1CE0D1FD2A3FF650AF8B4219
:1006B00040EBC25008BF20F0010070470CF0004C26
:1006C0004CEA50207F32C2BFD2F1FF0340EAC25051
:1006D000704740F400004FF00003013A37E792F012
:1006E000000F00F0004C02BF400010F4000F013A70
:1006F000F9D040EA0C0093F0000F01F0004C02BF6B
:10070000490011F4000F013BF9D041EA0C0195E7D3
:100710000CEAD15392EA0C0F08D142027FF47DAF6C
:1007200093EA0C0F7FF470AF084676E793EA0C0F5C
:1007300004D14B023FF44CAF08466EE730F0004C5A
:1007400018BF31F0004CCAD130F000427FF45CAFEA
:1007500031F000437FF43CAF5FE700BF4FEA400257
:10076000B2F1FE4F0FD34FF09E03B3EB12620DD9DF
:100770004FEA002343F0004310F0004F23FA02F049
:1007800018BF404270474FF00000704712F1610FF0
:1007900001D1420205D110F0004008BF6FF00040C7
:1007A00070474FF00000704753B94AB9002908BF9D
:1007B00000281CBF4FF0FF314FF0FF3000F088B928
:1007C000ADF1080C6DE904CE00F006F8DDF804E0A8
:1007D000DDE9022304B070472DE9F047089D8E46FD
:1007E00004468846002B4AD18A42174662D9B2FA9B
:1007F00082F64EB1C6F1200301FA06F820FA03F39F
:10080000B74043EA0808B4404FEA174E1FFA87FC86
:10081000B8FBFEF1230C0EFB118843EA084301FBF1
:100820000CF29A4209D9FB1801F1FF3080F0EA80FE
:100830009A4240F2E78002393B449A1AA3B2B2FBD3
:10084000FEF00EFB102243EA024300FB0CFC9C4529
:1008500009D9FB1800F1FF3280F0D6809C4540F2A8
:10086000D3803B44023840EA0140A3EB0C03002153
:100870001DB1F3400022C5E90032BDE8F0878B428C
:1008800005D90DB1C5E9000100210846F5E7B3FA25
:1008900083F1002946D1734502D3824200F20581DB
:1008A000841A6EEB030201209046002DE5D0C5E9C5
:1008B0000048E2E7002A00F09080B2FA82F6002EAB
:1008C00040F0A4808A1A030C4FEA174E80B2BCB2E3
:1008D0000121B2FBFEFC0EFB1C2243EA024304FB97
:1008E0000CF29A4207D9FB180CF1FF3802D29A4257
:1008F00000F2E080C4469B1AB3FBFEF20EFB1233FB
:1009000040EA034302FB04F49C4207D9FB1802F1BE
:10091000FF3002D29C4200F2CA8002461B1B42EA10
:100920000C40A5E7C1F120068B4022FA06F71F43D1
:100930000EFA01F420FA06F32EFA06FE4FEA1749E2
:10094000234300FA01F81FFA87FCBEFBF9F01C0CE8
:1009500009FB10EE44EA0E4400FB0CFEA64502FA29
:1009600001F209D93C1900F1FF3A80F09C80A645BC
:1009700040F2998002383C44A4EB0E041FFA83FE37
:10098000B4FBF9F309FB13444EEA044403FB0CFCEB
:10099000A44508D93C1903F1FF3E80F08280A445AC
:1009A0007FD9023B3C4443EA0040A4EB0C04A0FB8B
:1009B00002EC64457346E14662D35FD05DB1B8EBAB
:1009C000030264EB090404FA06F622FA01F31E435B
:1009D000CC40C5E9006400214FE7B1FBF2FC010CFB
:1009E00041EA0E4180B240EA01423B4638463C466D
:1009F000B846BE462026B1FBF7F1A2EB080241EA59
:100A00000C4166E7014618E710462CE7C6F12002C4
:100A10002EFA02F3B740B14020FA02F24FEA174E25
:100A20000A43B3FBFEF8BCB20EFB1833110C41EACB
:100A3000034108FB04F9B04089454FEA104380B2F6
:100A40003ED9791808F1FF3C01D289451FD8A1EBA6
:100A50000901B1FBFEF909FB04F80EFB191192B272
:100A600042EA0142424529D2BA1809F1FF31C4D203
:100A70004245C2D2A9F102013A44BEE7F0459DD2F7
:100A8000BEEB02036CEB070C0138E14696E7A7EBDF
:100A900009094944A8F1020CB1FBFEF909FB04F86D
:100AA000DBE773467FE7504666E70846FDE63B44D2
:100AB000023A33E7ACF1020C3B441CE749469CE7A1
:100AC000A1EB0901C446B1FBFEF909FB04F8C4E738
:100AD000704700BFF0B589B00024039404940594D6
:100AE000069407940194164B1A6B42F001021A63A4
:100AF0001A6B02F001020192019A02941A6B42F001
:100B000008021A631B6B03F008030293029B4FF465
:100B100070460396012704970A4D03A9284601F061
:100B2000CBFB03970494059403A9074801F0C4FB89
:100B300022463146284601F0C0FC09B0F0BD00BF96
:100B400000380240000C02400000024010B504468C
:100B5000FFF748FB4FF0FF3382B22146014802F015
:100B600054F910BD8C0000200FB400B5C3B044ABE5
:100B700053F8042B01934FF4807102A803F01CF882
:100B800002A8FFF7E3FF43B05DF804EB04B0704741
:100B900038B505461748FFF7D9FF1748FFF7D6FFC6
:100BA0001648FFF7D3FF1648FFF7D0FF1548FFF7A9
:100BB000CDFF002407E0144B53F82420611C134898
:100BC000FFF7D2FF0134042C09DCA542F3D00E4B11
:100BD00053F82420611C0E48FFF7C6FFF2E70648D1
:100BE000FFF7B4FF0B48FFF7B1FF0B48FFF7AEFF6D
:100BF00038BD00BFC84D0008D04D0008FC4D0008AE
:100C0000204E0008344E0008D85A0008604E0008F4
:100C1000744E0008844E0008B44E0008F8B5002059
:100C2000FFF7B6FF00273C463E4617E00D2B01D0EC
:100C30000A2B08D1022E5BD9711C3048FFF794FFB4
:100C40003046FFF7A5FF01212D4801F02FFC054696
:100C500038BB64BB0A2001F041FA2C460A2301226A
:100C60002849294802F037F90028ECD1254D4FF0EA
:100C7000FF3301222946244802F0C7F82B78A3F15C
:100C80003101C9B20429D1D8022932D901311B4816
:100C9000FFF76AFF1D48FFF759FF3046FFF778FF5F
:100CA000D1E7002CD6D101F013FA0746D2E701F0C4
:100CB0000FFAC01BB0F57A7F09D9022E1BD9711C1F
:100CC0001348FFF751FF3046FFF762FFC2E73228B3
:100CD000C0D901360F4A82FB0632F317C3EB620319
:100CE00003EB8303F31ADEB23046FFF751FFB1E79F
:100CF00031460846F8BD3146FBE700BFE04E00082C
:100D000000000240890000208C000020084F0008ED
:100D1000284F0008676666660268044B9A4200D056
:100D20007047034B01221A70FAE700BF00440040ED
:100D30008800002010B588B0002303930493059326
:100D4000069307930268194B9A4201D008B010BD70
:100D50000024019403F5FA331A6C42F400321A6449
:100D60001A6C02F400320192019A02941A6B42F05A
:100D700001021A631B6B03F001030293029B0C2315
:100D8000039302230493012305930323069307236C
:100D9000079303A9064801F08FFA22462146262030
:100DA00001F004FA262001F011FACFE700440040D8
:100DB0000000024008B501F07FF908BD08B50248FF
:100DC00002F07CF908BD00BF8C00002000B583B0A4
:100DD00072B64FF48041064801F075FB0023019381
:100DE000019A044B9A42F4DC019B01330193F7E72B
:100DF000000C02401FA1070008B50A480A4B036017
:100E00004FF4E133436000238360C36003610C222D
:100E100042618361C36101F0C8FF00B908BDFFF7FB
:100E2000D5FF00BF8C0000200044004000B593B007
:100E30003022002106A802F0CDFE00230193029388
:100E4000039304930593022306930123099310232C
:100E50000A9306A801F040FB68B90F230193002113
:100E6000029103910491059101A801F09FFD20B921
:100E700013B05DF804FBFFF7A9FFFFF7A7FF000021
:100E800010B501F0FFF8FFF7D1FFFFF723FEFFF7E2
:100E9000B3FF194C01224FF47041204601F00DFBC5
:100EA000C82001F01BF900224FF47041204601F0E8
:100EB00004FB04E000F0D2F91048FFF747FE104BA6
:100EC00000221A70FFF7AAFE04460E4B53F82020AA
:100ED000411C0D48FFF748FE012C07D0022C08D01A
:100EE000002CE7D00948FFF731FEE5E700F014FDDC
:100EF000E2E700F0E7FFDFE7000C0240844F000864
:100F00008A000020D85A00084C4F0008684F00089B
:100F10000C4B1A6842F001021A60002199601A68AD
:100F200022F0847222F480321A60074A5A601A68EA
:100F300022F480221A60D960044B4FF000629A605C
:100F4000704700BF003802401030002400ED00E080
:100F500038B504460D460A1E18BF0122044B33F86B
:100F60001010044801F0A9FA034B1D5538BD00BF0D
:100F7000145B0008000C0240D400002008B50C48A7
:100F8000FFF7E4FD0B48FFF7E1FD0B48FFF7DEFD3F
:100F90000A48FFF7DBFD0A48FFF7D8FD0948FFF7CD
:100FA000D5FD0948FFF7D2FD0848FFF7CFFD08BD82
:100FB000245000084850000878500008AC50000841
:100FC000D45000080451000824510008585100086A
:100FD00038B505460024032C08DC064B53F82410D2
:100FE0002846FFF7F5F818B10134F4E74FF0FF3465
:100FF000204638BD045B000808B510B101460378EF
:101000001BB90448FFF7A2FD08BD0348FFF7ACFD7C
:10101000FAE700BF905100088851000810B501F0B0
:1010200057F8144BA3FB00239B091349A1FB032191
:101030004909C1EB0112A3EB82021048FFF794FDAE
:101040000F48FFF783FD002404E00E4A0E48FFF727
:101050008BFD0134032C08DC0C4B53F824100C4B93
:101060001B5D002BF1D00B4AF0E70B48FFF76EFD3C
:1010700010BD00BFD34D621089888888B051000828
:10108000C8510008AC510008D0510008045B0008AA
:10109000D4000020A8510008BC56000810B5044632
:1010A000064B33F81010064801F00DFA054A135D9F
:1010B000B3FA83F35B09135510BD00BF145B00083E
:1010C000000C0240D400002070B52E4C214602F0E6
:1010D00089FD05462146002002F084FD75B10646D3
:1010E00060B129492846FFF773F8044690B12846B5
:1010F000FFF76EFF041E08DB651C0CE02348FFF7BA
:1011000025FD2348FFF722FD25E029462148FFF76A
:101110002BFD20E0042520493046FFF759F8A8B1FF
:101120001E493046FFF754F8B0B11D493046FFF76D
:101130004FF808BBA5421BDD2046FFF7AFFF013487
:10114000F8E701212046FFF703FF0134A542F8DC50
:101150001448FFF7FBFC70BDA54205DD00212046C9
:10116000FFF7F6FE0134F7E70E48FFF7EFFCF2E772
:101170000C48FFF7EBFCEEE731460B48FFF7F4FCB9
:10118000E9E700BFD85100082C520008DC510008E4
:101190000452000830520008C4560008AC51000840
:1011A00050520008485200085852000838B500E074
:1011B00001300378202BFBD003B938BD1D4902F064
:1011C00011FD04461C49002002F00CFD05461B4998
:1011D0002046FEF7FDFFC0B119492046FEF7F8FF93
:1011E000B0B118492046FEF7F3FFA0B116492046DA
:1011F000FEF7EEFF98B115492046FEF7E9FF90B1E2
:1012000021461348FFF7B0FCD7E7FFF7B7FED4E756
:10121000FFF704FFD1E72846FFF756FFCDE7284642
:10122000FFF7EAFEC9E70B48FFF790FC0A4B0122E3
:101230001A70C2E7D8510008CC4D00088852000847
:1012400090520008985200089C520008A4520008CE
:10125000D0520008AC5200088A00002038B50022A5
:101260002F4B1A702F4B1A604FF470412E4801F02B
:1012700024F92E48FFF76AFC2D4C2046FFF766FC48
:101280002C48FFF763FC2046FFF760FC2A48FFF775
:101290005DFC2A48FFF75AFC0AE0214C23782848D5
:1012A0000025C554FFF782FF2570264B1B7833B30A
:1012B000244B1B78002B31D10A23012222492348D9
:1012C00001F009FE0028F3D11F4B1B780D2BE4D051
:1012D0000A2BE2D07F2B16D0082B14D0104A12789C
:1012E0007E2AE5D8501C0E49087015498B544FF0E2
:1012F000FF3301221449154801F087FDD8E714484F
:10130000FFF724FCD4E7064B1B78002BD0D0013B21
:10131000034A13700F48FFF719FCC9E738BD00BF37
:10132000D9000020D4000020000C0240BC56000868
:10133000D04D0008045300082853000850530008FB
:10134000DC0000208A000020D80000208C00002053
:10135000585300085C53000884460023184604E0F4
:101360001CF8032050400133DBB28B42F8D37047A6
:1013700000B583B0BB238DF800308DF801008DF8E7
:1013800002108DF8032004216846FFF7E5FF8DF871
:1013900004004FF0FF3305226946034801F035FD94
:1013A00003B05DF804FB00BF8C000020042801D9C5
:1013B0000020704708B5064B020103EB001081883E
:1013C000985801F073F8012814BF0020012008BDCF
:1013D0001C5B000838B504460421FFF7BDFF2379E4
:1013E00083420CD16378A478052B1BD0042C22D81F
:1013F000013B032B7ED8DFE803F0243E5874002223
:1014000011460120FFF7B4FF38BD0134042C0CDC79
:10141000E0B2FFF7CBFF0028F7D00123A3401D4324
:10142000EDB2F2E700242546F0E72A46FF2100202E
:10143000FFF79EFFE8E7002221460120FFF798FF13
:10144000E2E72F4B03EB04131B7B73B12C4B200102
:1014500003EB041101228988185801F02EF80122AB
:1014600021460020FFF784FFCEE70022214601201D
:10147000FFF77EFFC8E7224B03EB04131B7B73B11E
:101480001F4B200103EB041100228988185801F03A
:1014900014F8002221461046FFF76AFFB4E7002245
:1014A00021460120FFF764FFAEE7154B03EB041361
:1014B0001B7B83B1124B220103EB041189889858DE
:1014C00001F001F82046FFF771FF02462146002097
:1014D000FFF74EFF98E7002221460120FFF748FF63
:1014E00092E72046FFF762FF024621460020FFF701
:1014F0003FFF89E7002221460120FFF739FF83E7FC
:101500001C5B000838B505460024042C09DC0A4B96
:1015100003EB041399682846FEF75AFE38B10134EC
:10152000F3E706492846FEF753FE10B9FF2420468C
:1015300038BD4FF0FF34FAE71C5B00082C5200085E
:1015400000E001300378202BFBD0002B00F0D48189
:10155000F0B585B000240194029403940EE00130AC
:1015600003780BB1202BFAD123B1002300F8013B03
:1015700000E001300378202BFBD01446037843B100
:10158000022C06DC621C04AB03EB840444F80C0C54
:10159000E6E7019DA1492846FEF71AFE002844D03F
:1015A0009F492846FEF714FE00285AD09D49284638
:1015B000FEF70EFE002859D09B492846FEF708FE8C
:1015C000074638B9012C05DD98490298FEF700FE60
:1015D00000284BD096492846FEF7FAFD064600281B
:1015E00040F0AA80022C59DD029D2846FFF78AFFB1
:1015F000041E57DB039D8F492846FEF7E9FD0028AE
:1016000059D08D492846FEF7E3FD002863D08B4969
:101610002846FEF7DDFD00285FD089492846FEF701
:10162000D7FD002843D1002546E08648FFF78EFA13
:101630008548FFF78BFA8548FFF788FA8448FFF75B
:1016400085FA8448FFF782FA8348FFF77FFA8348D8
:10165000FFF77CFA8248FFF779FA8248FFF776FABB
:1016600002E0814B01221A7005B0F0BD7F48FFF700
:101670006DFA002405E07E4A29467E48FFF774FA99
:101680000134042CF0DC7C4B03EB04139D68E0B2C6
:10169000FFF78CFE0028EED0784AEDE77848FFF798
:1016A00055FAE1E729467748FFF75EFADCE7764826
:1016B000FFF74CFAD8E70125FF2C11D06E4B03EB56
:1016C00004131B7B33BB6C4B03EB041399686F480B
:1016D000FFF74AFAC8E70125EEE70025ECE70136F7
:1016E000042E0FDC644B03EB06131B7B002BF6D0A0
:1016F0006148330100EB06112A468988C05800F082
:10170000DCFEECE725B162496248FFF72DFAABE752
:101710006149F9E7584B200103EB04142A46A188DC
:10172000185800F0CAFEA16825B1594A5B48FFF776
:101730001BFA99E7584AF9E759492846FEF748FD48
:10174000064600284AD1012C14DD029D2846FFF7E9
:10175000D9FE041E12DBFF2C16D0474B03EB0413FB
:101760001B7B33BB444B03EB041399684748FFF7DB
:10177000FBF979E74B48FFF7E9F975E72946414856
:10178000FFF7F2F970E70136042E0EDC3A4B03EB5B
:1017900006131B7B002BF6D0374A330102EB0611F0
:1017A0008988D05800F08FFEEDE73F48FFF7CEF96B
:1017B0005AE7314B220103EB0415A988985800F031
:1017C00082FEAD68E0B2FFF7F1FD28B1304A29464C
:1017D0003248FFF7C9F947E72F4AF8E7002F40F0F2
:1017E0008680012C16DD029C2046FFF78BFE002828
:1017F0005EDBFF2861D0204B03EB00139C68C0B276
:10180000FFF7D4FD002870D01C4A21462348FFF77B
:10181000ABF929E72548FFF799F925E78852000831
:10182000A4520008905200081C5500082C520008D1
:1018300048550008C456000880550008AC510008FF
:101840008455000898530008C4530008F05300085A
:10185000185400084454000874540008A4540008A4
:10186000D0540008005500088A00002024550008C4
:1018700088530008385500081C5B00087C5300089A
:101880004C5500086C55000888550008B4550008F0
:10189000A8510008A055000894530008C855000836
:1018A00050520008D4550008EC55000804560008B2
:1018B00021461248FFF758F9D6E61148FFF746F9D6
:1018C00005E0104A21461048FFF74EF90137042F72
:1018D0003FF7CAAE0D4B03EB07139C68F8B2FFF756
:1018E00065FD0028EDD00A4AECE7064A8DE7294657
:1018F0000848FFF739F9B7E6704700BF6C55000894
:101900002455000888530008385500081C5B00085F
:101910007C5300082C560008F0B593B04248FFF7FE
:1019200015F9424C2046FFF711F94148FFF70EF92F
:101930002046FFF70BF93F48FFF708F93E48FFF74D
:1019400005F93E48FFF702F900252C462E4611E026
:101950002DB90EBB8DF8003001252C460AE0621C23
:10196000D2B204F148010DEB010404F8483C042A0A
:1019700030D81446324B1B78002B52D10A23012257
:101980000DF107012F4801F0A6FA07460028F1D112
:101990009DF80730AA2BDBD0002DE0D10D2B1FD0F6
:1019A0000A2B1DD07F2B34D0082B32D03E2EE1D80D
:1019B000771CFFB206F148020DEB020606F8403C28
:1019C0004FF0FF3301220DF107011E4801F01DFA0F
:1019D0003E46CFE76846FFF7FDFC3D463A46C8E77E
:1019E0001148FFF7B3F806F148036B44002203F8EF
:1019F000402C36B9124B1B7803F0FF062BB12E4654
:101A0000B8E702A8FFF79CFDF4E70C48FFF79EF843
:101A1000B0E7002EAED0013EF6B20B48FFF796F8C5
:101A2000A8E713B0F0BD00BFBC560008D04D0008B9
:101A30005456000874560008905600085853000881
:101A40008A0000208C0000205C53000808B5FEF7D7
:101A5000DDFC0849FEF7E6FD0749FEF72FFD0146CC
:101A60000648FEF721FC0649FEF7DCFD0549FEF7B6
:101A70001DFC08BD00F07F45333353405C8F423F6F
:101A80000AD7233B0000C84108B5FEF7BFFC034955
:101A9000FEF7C8FD0249FEF711FD08BD00F07F45C5
:101AA0003333534000B587B0002300930C4A116BC9
:101AB00041F001011163126B02F001020092009AE1
:101AC0000193029303930493059302230193032349
:101AD000029301A9034800F0EFFB07B05DF804FB97
:101AE000003802400000024000B583B0002301939B
:101AF000114A516C41F480715164526C02F480724D
:101B00000192019A0D480E4A02604FF48032426001
:101B100083600361037680F82030C362094A8262E1
:101B2000C3600122C26180F83030426101F0B1FC33
:101B300003B05DF804FB00BF0038024068010020DC
:101B4000002001400100000F30B585B00023009354
:101B500001930293039300900123019302910B4C94
:101B60006946204601F000FE204601F0DBFC6421BE
:101B7000204601F099FD204601F0F2FD0546204681
:101B800001F072FD284605B030BD00BF680100209D
:101B900008B506211020FFF7D7FF08BD08B50421BE
:101BA0000120FFF7D1FF08BD2DE9F04385B0FFF715
:101BB000EFFF0546FFF7F2FF06462846FFF746FF10
:101BC00007463046FFF760FF04461D4A136801339D
:101BD00013603846FEF7C2FD8046FEF71BFC014647
:101BE0003846FEF761FB1749FEF768FCFEF7B6FDC5
:101BF000B0F100091FDB2046FEF7B0FD0746FEF7F7
:101C000009FC01462046FEF74FFB0F49FEF756FC44
:101C1000FEF7A4FD041E11DB00F05AFA01460396FC
:101C20000294019700954B4642460848FEF79CFFF8
:101C300005B0BDE8F083C9F10009DCE76442EBE7D9
:101C40005C010020000020410000C842C856000886
:101C500000E001300378202BFBD0002B00F0E28065
:101C600030B583B00024009401940EE00130037875
:101C70000BB1202BFAD123B1002300F8013B00E087
:101C800001300378202BFBD01446037843B1012C9C
:101C900006DC621C02AB03EB840444F8080CE6E7A4
:101CA000009D61492846FEF793FA10B35F49284624
:101CB000FEF78EFA002841D05D492846FEF788FAE3
:101CC000002843D05B492846FEF782FA00284BD013
:101CD00059492846FEF77CFA002851D05749284632
:101CE000FEF776FA002877D1012C4FDD019800210C
:101CF0005CE05348FEF72AFF5248FEF727FF5248A0
:101D0000FEF724FF5148FEF721FF5148FEF71EFF62
:101D10005048FEF71BFF5048FEF718FF4F48FEF7EC
:101D200015FF4F48FEF712FF4E48FEF70FFF4E48D3
:101D3000FEF70CFF4D48FEF709FF05E04C4B002273
:101D40001A704C4B01221A7003B030BD484B01226F
:101D50001A70494B00221A6000F0BAF9474B18601C
:101D60004748FEF7F3FEEFE7414B00221A70424B63
:101D700019684448FEF7F8FE4348FEF7E7FEE3E73C
:101D80004248FEF7E3FEFFF70FFFDDE7404B19681F
:101D90004048FEF7E9FE4048FEF7D8FED4E701EBE5
:101DA000810103EB4103A3F1300101300378A3F17A
:101DB0003002D2B2092AF2D9312906D942F210737F
:101DC000994203D942F2107100E03221304B196080
:101DD0003248FEF7C9FEB7E731492846FEF7F8F961
:101DE000D8B9234B1B78B3B12E492F48FEF7BCFE60
:101DF000274B19682D48FEF7B7FE1F4B19682C4872
:101E0000FEF7B2FE2B48FEF7A1FE2B48FEF79EFE22
:101E1000FFF7CAFE98E72949E7E729462848FEF771
:101E2000A3FE91E7704700BF88520008A452000843
:101E3000F85800082C590008605900086859000833
:101E4000005700082C5700085C570008805700080E
:101E5000A8570008DC570008085800082C5800084C
:101E6000445800087858000888580008B8580008F6
:101E7000640100208A0000205C0100206001002035
:101E8000005900083459000858530008505A0008F7
:101E900004000020705900088C590008A859000857
:101EA00090520008A8510008C8590008DC590008E1
:101EB000F4590008085A0008345A000894530008DE
:101EC0002C56000830B593B0FFF7ECFDFFF70CFE81
:101ED0000024474B1C70474B1C60474B4FF4FA7271
:101EE0001A604648FEF732FE454D2846FEF72EFEA4
:101EF0004448FEF72BFE2846FEF728FE4248FEF730
:101F000025FE4248FEF722FE4148FEF71FFEFFF77E
:101F10004BFE4048FEF71AFE25E03848FEF716FE55
:101F200004F148036B44002203F8402C64B93A4B97
:101F30001B7803F0FF0493B92D4B1D7885B9374802
:101F4000FEF704FE2C460BE002A8FFF781FEEEE749
:101F500034B1013CE4B23248FEF7F8FD00E02C4613
:101F6000234B1B785BBB2C4B1B78002B35D10A23F2
:101F700001220DF107012B4800F0ADFF05460028B6
:101F8000EED19DF807300D2BC7D00A2BC5D07F2B83
:101F9000DED0082BDCD03E2CE2D8651CEDB204F17B
:101FA00048020DEB020404F8403C4FF0FF330122DD
:101FB0000DF107011B4800F028FF2C46D0E700F088
:101FC00087F8194B1B68C31A0B4A12689342CAD38D
:101FD000154B1860FFF7E8FDC5E7144801F085FAD6
:101FE000134A536C23F48073536413B030BD00BFA5
:101FF000640100205C01002004000020BC560008A1
:10200000D04D0008545A0008785A0008A45A000815
:10201000C45A0008505300088A0000205853000892
:102020005C5300088C000020600100206801002043
:10203000003802407047000010B504460E4B1A7875
:102040004FF47A73B3FBF2F30C4A1068B0FBF3F071
:1020500000F0C0F868B90F2C01D901200AE0002275
:1020600021464FF0FF3000F0A1F8054B1C60002026
:1020700000E0012010BD00BF08000020000000208B
:102080000C00002008B50B4B1A6842F400721A606D
:102090001A6842F480621A601A6842F480721A6008
:1020A000032000F071F80F20FFF7C6FFFFF7C2FF13
:1020B000002008BD003C0240034A1168034B1B7816
:1020C0000B441360704700BFB001002008000020DF
:1020D000014B1868704700BFB001002038B50446B6
:1020E000FFF7F6FF0546B4F1FF3F02D0044B1B7823
:1020F0001C44FFF7EDFF401BA042FAD338BD00BFE0
:1021000008000020002807DB00F01F02400901231F
:102110009340024A42F82030704700BF00E100E0DF
:10212000002808DB0901C9B200F1604000F56140F8
:1021300080F80013704700F00F000901C9B2014B8D
:102140001954704714ED00E000B500F00700C0F12D
:10215000070CBCF1040F28BF4FF0040C031D062B25
:102160000FD9C31E4FF0FF3E0EFA0CF021EA00011A
:1021700099400EFA03FE22EA0E0241EA02005DF8DF
:1021800004FB0023EEE70000074AD36823F4E06372
:102190001B041B0C000200F4E060034343F0BF6328
:1021A00043F40033D360704700ED00E010B50446FF
:1021B000054BD868C0F30220FFF7C6FF0146204652
:1021C000FFF7AEFF10BD00BF00ED00E008B5FFF760
:1021D00099FF08BD0138B0F1807F0BD24FF0E023AA
:1021E0005861054AF02182F82310002098610722E7
:1021F0001A6170470120704700ED00E070B5044699
:10220000866DFFF765FF94F83530DBB2022B06D000
:1022100080236365002384F83430012070BD0546B7
:102220002268136823F0160313602268536923F0B1
:1022300080035361236CE3B12268136823F0080321
:1022400013602268136823F00103136023681B687E
:1022500013F0010F11D0FFF73BFF431B052BF5D9FE
:1022600020236365032084F83500002384F834308C
:10227000D4E7A36C002BDFD1E3E7E26D3F2393406B
:10228000B360012384F83530002084F83400C5E7BA
:1022900090F83530DBB2022B03D080234365012058
:1022A0007047052380F835300268136823F0010376
:1022B000136000207047000000230F2B00F2EC8019
:1022C00030B583B068E085684FEA430E032404FA12
:1022D0000EF425EA0405CC6804FA0EF42C4384605D
:1022E000446824EA02044A68C2F300129A40224376
:1022F00042605FE0DC08083450F8242003F0070552
:10230000AD004FF00F0E0EFA05FE22EA0E0E0A691E
:10231000AA4042EA0E0240F824205FE0072200E0D3
:10232000002202FA0EF22A4302345C4D45F82420C2
:102330005B4A94686FEA0C0224EA0C05D1F804E0C9
:102340001EF4801F01D04CEA0405554CA560E468DA
:1023500002EA0405D1F804E01EF4001F01D04CEAA3
:1023600004054F4CE560646802EA0405D1F804E016
:102370001EF4003F01D04CEA0405494C6560246816
:1023800022404D6815F4803F01D04CEA0402444CD1
:10239000226001330F2B7DD801229A400C6804EA99
:1023A000020C32EA0404F4D14C6804F00304013C4A
:1023B000012C88D94A6802F00302032A09D0C468B4
:1023C0005D000322AA4024EA02048A68AA4022434C
:1023D000C2604A6802F00302022A8BD004684FEA06
:1023E000430E032202FA0EF224EA02044A6802F0C3
:1023F000030202FA0EF2224302604A6812F4403FDE
:10240000C7D000220192274A546C44F4804454649B
:10241000526C02F480420192019A9C08A51C1F4A4A
:1024200052F8255003F0030E4FEA8E0E0F2202FAE7
:102430000EF225EA02051C4A90423FF471AF02F504
:10244000806290421AD002F58062904218D002F564
:102450008062904216D002F58062904214D002F55C
:102460008062904212D002F58062904210D002F554
:10247000806290423FF452AF082252E7012250E7B7
:1024800002224EE703224CE704224AE7052248E7EE
:10249000062246E703B030BD704700BF0038014058
:1024A000003C01400038024000000240036919422C
:1024B00001D001207047002070470AB18161704748
:1024C000090481617047436901EA030221EA0301BB
:1024D00041EA024181617047002800F0E08170B557
:1024E00082B00446036813F0010F3BD09F4B9B68FA
:1024F00003F00C03042B2CD09C4B9B6803F00C03C3
:10250000082B21D06368B3F5803F4FD0B3F5A02FDF
:1025100052D0964B1A6822F480321A601A6822F45C
:1025200080221A606368002B50D0FFF7D1FD05466A
:102530008E4B1B6813F4003F14D1FFF7C9FD401BFD
:102540006428F5D90320B1E1884B5B6813F4800F50
:10255000D8D0864B1B6813F4003F03D06368002B70
:1025600000F09F81236813F0020F54D07F4B9B68CB
:1025700013F00C0F3ED07D4B9B6803F00C03082B2F
:1025800033D0E368002B68D0794B01221A60FFF743
:102590009FFD0546754B1B6813F0020F54D1FFF7E2
:1025A00097FD401B0228F5D903207FE16F4A13688D
:1025B00043F480331360B5E76C4B1A6842F4802211
:1025C0001A601A6842F480321A60ABE7FFF780FDA8
:1025D0000546664B1B6813F4003FC3D0FFF778FD38
:1025E000401B6428F5D9032060E1604B5B6813F45D
:1025F000800FC6D15D4B1B6813F0020F03D0E36858
:10260000012B40F05081594A136823F0F8032169E7
:1026100043EAC1031360236813F0080F42D06369D3
:102620006BB3534B0122C3F8802EFFF751FD0546D3
:102630004E4B5B6F13F0020F34D1FFF749FD401B87
:102640000228F5D9032031E1484A136823F0F80342
:10265000216943EAC1031360DDE7454B00221A609C
:10266000FFF736FD0546414B1B6813F0020FD2D031
:10267000FFF72EFD401B0228F5D9032016E13C4B45
:102680000022C3F8802EFFF723FD0546374B5B6F12
:1026900013F0020F06D0FFF71BFD401B0228F5D9EF
:1026A000032003E1236813F0040F77D02F4B1B6C3A
:1026B00013F0805F33D1002301932C4B1A6C42F04E
:1026C00080521A641B6C03F080530193019B012517
:1026D000284B1B6813F4807F23D0A368012B34D0D0
:1026E000052B38D0214B1A6F22F001021A671A6F9E
:1026F00022F004021A67A368002B3DD0FFF7E8FC24
:1027000006461A4B1B6F13F0020F46D1FFF7E0FC91
:10271000801B41F288339842F3D90320C6E000259C
:10272000D6E7144A136843F480731360FFF7D0FCB4
:102730000646104B1B6813F4807FCED1FFF7C8FC10
:10274000801B0228F5D90320B0E0084A136F43F03C
:1027500001031367CFE7054B1A6F42F004021A67B3
:102760001A6F42F001021A67C5E700BF0038024045
:102770000000474200700040FFF7AAFC0646524B9B
:102780001B6F13F0020F08D0FFF7A2FC801B41F271
:1027900088339842F3D9032088E0EDB9A369002B70
:1027A00000F08380484A926802F00C02082A51D057
:1027B000022B17D0454B00221A66FFF789FC04460E
:1027C000414B1B6813F0007F42D0FFF781FC001BD8
:1027D0000228F5D9032069E03B4A136C23F08053AB
:1027E0001364DBE7394B00221A66FFF771FC0546DC
:1027F000354B1B6813F0007F06D0FFF769FC401BC8
:102800000228F5D9032051E0E369226A1343626A82
:1028100043EA8213A26A5208013A43EA0243E26A97
:1028200043EA0263284A5360284B01221A66FFF7E5
:102830004FFC0446244B1B6813F0007F06D1FFF7C2
:1028400047FC001B0228F5D903202FE000202DE0D3
:1028500000202BE0012B2BD01B4B5B6803F4800185
:10286000E269914226D103F03F02216A8A4223D1D4
:10287000616A47F6C0721A40B2EB811F1ED103F4A1
:102880004031A26A5208013AB1EB024F18D103F06D
:102890007063E26AB3EB026F14D1002006E00120FE
:1028A0007047012002E0012000E0002002B070BD6E
:1028B0000120FBE70120F9E70120F7E70120F5E718
:1028C0000120F3E70120F1E7003802400000474211
:1028D00008B5334B9B6803F00C03042B5BD0082B2B
:1028E0005BD12F4B5A6802F03F025B6813F4800FF4
:1028F0002CD02B4B5868C0F388104FEA401CBCEB1F
:10290000000C6EEB0E0E4FEA8E1343EA9C634FEA07
:102910008C11B1EB0C0163EB0E03DB0043EA517346
:10292000C90011EB000C43F10003590200234FEAE8
:102930004C2041EADC51FDF737FF194B5B68C3F3CC
:10294000014301335B00B0FBF3F008BD144B586842
:10295000C0F388104FEA401CBCEB000C6EEB0E0E6F
:102960004FEA8E1343EA9C634FEA8C11B1EB0C01E2
:1029700063EB0E03DB0043EA5173C90011EB000C5B
:1029800043F10003990200234FEA8C2041EA9C5155
:10299000FDF70AFFD1E70348D7E70348D5E700BFB3
:1029A0000038024000127A000024F400002800F0F1
:1029B0009B8070B50D4604464F4B1B6803F0070320
:1029C0008B4208D2CBB24C4A1370136803F0070352
:1029D0008B4240F08B80236813F0020F17D013F066
:1029E000040F04D0454A936843F4E053936023688E
:1029F00013F0080F04D0414A936843F46043936096
:102A00003E4A936823F0F003A1680B439360236868
:102A100013F0010F32D06368012B21D09A1E012AD6
:102A200025D9364A126812F0020F61D033498A68FC
:102A300022F0030213438B60FFF74AFB06462F4B3D
:102A40009B6803F00C036268B3EB820F16D0FFF7AC
:102A50003FFB801B41F288339842F0D9032042E0CB
:102A6000264A126812F4003FE0D101203BE0234ADD
:102A7000126812F0007FD9D1012034E01E4B1B6890
:102A800003F00703AB4207D9EAB21B4B1A701B686D
:102A900003F00703AB422DD1236813F0040F06D0D7
:102AA000164A936823F4E053E1680B43936023686C
:102AB00013F0080F07D0114A936823F4604321698B
:102AC00043EAC1039360FFF703FF0C4B9B68C3F31A
:102AD00003130B4AD35CD8400A4B18600A4B1868A2
:102AE000FFF7AAFA002070BD012070470120FAE725
:102AF0000120F8E70120F6E7003C024000380240E0
:102B0000F45A0008000000200C000020014B186857
:102B1000704700BF0000002008B5FFF7F7FF044B27
:102B20009B68C3F38223034AD35CD84008BD00BF2F
:102B300000380240EC5A000808B5FFF7E7FF044BE5
:102B40009B68C3F34233034AD35CD84008BD00BF3F
:102B500000380240EC5A0008026802F10C0353E806
:102B6000003F23F490730C3242E800310029F3D186
:102B7000026802F1140353E8003F23F0010314320A
:102B800042E800310029F3D1036B012B05D020234B
:102B900080F84230002303637047026802F10C039F
:102BA00053E8003F23F010030C3242E800310029C3
:102BB000F3D1ECE790F84130DBB2212B01D00220B9
:102BC00070478368B3F5805F17D0036A5A1C0262AE
:102BD0001A7803685A60C38C9BB2013B9BB2C384D2
:102BE0004BB90268D36823F08003D3600268D368CE
:102BF00043F04003D360002070470369002BE4D109
:102C0000036A1B880268C3F308035360036A023334
:102C10000362E0E710B504460268136923F44053E9
:102C2000C1680B431361836802691A4343691A43FD
:102C3000C3691A430168CB6823F4164323F00C03DD
:102C40001343CB600268536923F4407381690B43DB
:102C500053610368314A934206D002F58062934281
:102C600002D0FFF759FF01E0FFF766FFE369B3F514
:102C7000004F29D00021031849411B1841F10001E0
:102C8000C90041EA5371DB00181863684FEA8302F8
:102C90004FEA937341F10001FDF786FD204AA2FB44
:102CA00000314909642303FB11031B013233A2FBEA
:102CB00003235B0903F0F00202EB011203F00F03A0
:102CC000216813448B6010BD0023021843EB0301FD
:102CD000121841F10001C90041EA5271D2001018E6
:102CE00041F10001626892185B41FDF75DFD0C4AFD
:102CF000A2FB00314909642303FB1103DB003233DB
:102D0000A2FB03235B095A0002F4F87202EB0112E2
:102D100003F00703216813448B60D4E700100140DF
:102D20001F85EB512DE9F04383B005460E4617464B
:102D30009946DDF828802B681C6836EA04040CBF2D
:102D400001240024BC4228D1B8F1FF3FF3D0FFF7A3
:102D5000BFF9A0EB0900404523D8B8F1000F22D0FD
:102D60002B68DA6812F0040FE5D0802EE3D0402EF5
:102D7000E1D01A6812F0080FDDD0002401941A681F
:102D800001925B680193019B2846FFF7E5FE08234B
:102D90006B6485F84040012000E0002003B0BDE8EE
:102DA000F0830320FAE70320F8E760B310B5044688
:102DB00090F8413013B3242384F841302268D3685B
:102DC00023F40053D3602046FFF724FF22681369E1
:102DD00023F4904313612268536923F02A0353615B
:102DE0002268D36843F40053D3600020606420233A
:102DF00084F8413084F84230606310BD80F8403080
:102E0000FDF798FFD7E7012070472DE9F04182B028
:102E10001E4690F84130DBB2202B56D104460D46B9
:102E20009046002955D00AB901204FE000234364A1
:102E3000212380F84130FFF74BF90746A4F824809E
:102E4000A4F82680A368B3F5805F02D04FF0000895
:102E500014E023692BB34FF000080FE0202384F81F
:102E60004130032032E038F8023B2268C3F3080304
:102E70005360E28C92B2013A92B2E284E38C9BB24C
:102E800093B100963B46002280212046FFF74AFF7F
:102E90000028E3D1002DE6D015F8012B23685A60F5
:102EA000E7E7A8460025E9E700963B4600224021D7
:102EB0002046FFF737FF18B9202384F8413005E09A
:102EC000202384F84130032000E0022002B0BDE856
:102ED000F0810120FAE72DE9F04182B01E4690F81A
:102EE0004230DBB2202B59D104460D4690460029D2
:102EF00058D00AB9012052E000234364222280F80E
:102F000042200363FFF7E4F80746A4F82C80A4F8F6
:102F10002E80A368B3F5805F02D04FF000081CE05C
:102F2000236913B14FF0000817E0A846002514E00C
:102F3000202384F84230032031E023685B68C3F328
:102F4000080328F8023B03E023685B682B70013517
:102F5000E28D92B2013A92B2E285E38D9BB2C3B1A7
:102F600000963B46002220212046FFF7DBFE00288A
:102F7000DED1002DE1D0A368B3F5805FE4D013B9B2
:102F80002369002BE0D023685B6803F07F032B707C
:102F9000DDE7202384F84230002000E0022002B068
:102FA000BDE8F0810120FAE7704708B50168CA68FA
:102FB00022F04002CA60202280F84120FFF7F4FF8F
:102FC000002008BD704708B5806B0023C385FFF75C
:102FD000F9FF08BD704790F84230DBB2222B69D16F
:102FE0008368B3F5805F4FD0826AB3F5805F04D009
:102FF000002B56D10369002B53D103685B68137013
:10300000836A01338362C38D9BB2013B9BB2C3854C
:10301000002B51D100B583B00268D36823F02003A0
:10302000D3600268D36823F48073D3600268536965
:1030300023F001035361202380F8423000234363CF
:10304000036B012B33D100230363026802F10C03ED
:1030500053E8003F23F010030C3242E8003100290E
:10306000F3D103681A6812F0100F06D00022019203
:103070001A6801925B680193019B818DFFF7AAFF9B
:10308000002003B05DF804FB0269002AACD1826A1B
:1030900003685B68C3F308031380836A02338362A7
:1030A000B1E703685B6803F07F031370A8E7FDF7DF
:1030B00033FEE5E7022070470020704710B582B06C
:1030C000044602681368D068516913F00F0F09D1E4
:1030D00013F0200F0CD010F0200F09D02046FFF77E
:1030E0007AFF16E011F0010115D110F4907F12D192
:1030F000216B012979D013F0800F03D010F0800FDD
:1031000040F0218113F0400F03D010F0400F40F049
:103110001E8102B010BD13F0010F06D010F4807FA5
:1031200003D0626C42F00102626413F0040F04D019
:1031300019B1626C42F00202626413F0020F04D013
:1031400019B1626C42F00402626413F0080F07D0F8
:1031500010F0200F00D119B1626C42F008026264D5
:10316000626C002AD5D013F0200F02D010F0200F8F
:1031700029D123685B6903F04003626C12F0080FE9
:1031800000D163B32046FFF7E7FC23685B6913F0C7
:10319000400F20D0226802F1140353E8003F23F0CF
:1031A0004003143242E800310029F3D1E36B73B1DC
:1031B000694A1A65E06BFFF76BF80028A9D0E06B4D
:1031C000036D9847A5E72046FFF705FFD1E72046A6
:1031D000FFF7F8FE9DE72046FFF7F4FE99E720464B
:1031E000FFF7F0FE0023636493E713F0100F82D023
:1031F00010F0100F3FF47FAF002301931368019389
:1032000053680193019B536913F0400F5FD0E26B49
:1032100013685B689BB2002B4AD0A18D994247D9B5
:10322000E385D369B3F5807F37D0226802F10C03C0
:1032300053E8003F23F480730C3242E80031002948
:10324000F3D1226802F1140353E8003F23F0010395
:10325000143242E800310029F3D1226802F114034C
:1032600053E8003F23F04003143242E800310029C4
:10327000F3D1202384F8423000232363226802F133
:103280000C0353E8003F23F010030C3242E80031F6
:103290000029F3D1E06BFEF7B1FF02236363A18D38
:1032A000E38D9BB2C91A89B22046FFF793FE30E73F
:1032B000A18D99427FF42DAFD369B3F5807F7FF460
:1032C00028AF022363632046FFF784FE21E7A18D28
:1032D000E38D9BB2C91A89B2E38D9BB2002B3FF4F8
:1032E00018AF00293FF415AF226802F10C0353E830
:1032F000003F23F490730C3242E800300028F3D1F1
:10330000226802F1140353E8003F23F00103143252
:1033100042E800300028F3D1202384F84230002313
:103320002363226802F10C0353E8003F23F01003EB
:103330000C3242E800300028F3D1022363632046B8
:10334000FFF748FEE5E62046FFF734FCE1E62046BD
:10335000FFF72BFEDDE600BFC72F00084A4B5A6877
:1033600022F440325A605A6841680A435A6002683F
:10337000536823F48073536002685368016943EA19
:10338000012353600268536823F04073536002685E
:10339000536881680B4353600268936823F40063A9
:1033A000936002689368C1680B439360826A374BED
:1033B0009A4257D00268936823F070639360026862
:1033C0009368816A0B4393600268936823F04053CB
:1033D000936002689368C16A0B43936002689368C4
:1033E00023F00203936002689368017E43EA41037D
:1033F000936090F82030002B3FD00268536843F46C
:10340000006353600268536823F4604353600168AB
:103410004B68426A013A43EA42334B600268D36A1E
:1034200023F47003D3620168CB6AC269013A43EAAC
:103430000253CB620268936823F4007393600268BE
:10344000936890F8301043EA4123936002689368D0
:1034500023F48063936002689368416943EA81239F
:10346000936070470268936823F07063936002680A
:10347000936823F040539360B0E70268536823F4E5
:1034800000635360CAE700BF002301400100000F42
:10349000704738B310B50446036C43B1236C13F086
:1034A000100F0BD00120002384F83C3010BDFFF733
:1034B000EFFF0023636484F83C30EFE7236C23F4D0
:1034C000885323F0020343F0020323642046FFF7EE
:1034D00045FF00206064236C23F0030343F00103E5
:1034E0002364E0E7012070477047C8B110B5044677
:1034F000036C43F0020303640268936823F0010342
:10350000936003689B6813F0010F03D0002084F8D8
:103510003C0010BDFFF7E8FF002363642364F5E778
:103520000120704782B00023019390F83C30012BBA
:1035300000F08980012380F83C3003689A6812F01B
:10354000010F13D19A6842F001029A60414B1B6847
:10355000414AA2FB03239B0C03EB4303019302E0CC
:10356000019B013B0193019B002BF9D102689368F9
:1035700013F0010F5CD0036C23F4E06323F001032C
:1035800043F480730364536813F4806F05D0036CB5
:1035900023F4405343F480530364036C13F4805FBB
:1035A0001BD0436C23F006034364002380F83C30B7
:1035B0006FF022031360294B5B6813F01F0F27D1B4
:1035C0000368274A934211D002F58072934207D0D4
:1035D000244A934214D0002033E000234364E4E7FC
:1035E00002F50072526812F01F0FF1D19A6812F0C2
:1035F000405F2AD19A6842F080429A60002020E021
:1036000002F58072526812F0100FEFD0002018E01F
:103610000368134A934201D0002012E09A6812F026
:10362000405F14D19A6842F080429A60002008E01E
:10363000036C43F010030364436C43F001034364E1
:10364000002002B070470220FBE70020F9E70020CD
:10365000F7E700BF0000002083DE1B43002301408A
:10366000002001400022014090F83C30012B19D08D
:10367000012380F83C300268936823F001039360D3
:1036800003689B6813F0010F07D1036C23F4885380
:1036900023F0010343F001030364002380F83C306E
:1036A000184670470220704770B504460D460368FF
:1036B0009A6812F4806F03D09B6813F4807F19D14D
:1036C000FEF706FD064623681A6812F0020F20D1A5
:1036D000B5F1FF3FF7D0B5B923681B6813F0020FAF
:1036E000F1D1236C43F004032364002384F83C30BD
:1036F000032032E0036C43F020030364002380F8CE
:103700003C30012029E0FEF7E3FC801BA842DAD917
:10371000E2E76FF012021A60236C43F40073236433
:1037200023689A6812F0405F16D1207EB0B9DA6A39
:1037300012F4700F03D09B6813F4806F0DD1236CCB
:1037400023F480732364236C13F4805F05D1236C0E
:1037500043F00103236400E0002070BD0020FCE77B
:103760000368D86C7047000030B482B00022019228
:1037700090F83C20012A00F0B6800346012280F830
:103780003C200A68092A40D90468E06892B202EB3A
:1037900042021E3A4FF0070C0CFA02F220EA020233
:1037A000E2601C68E0680A8802EB42021E3A8D68FB
:1037B00005FA02F20243E2604A68062A3CD81C6815
:1037C000606B02EB8202053A4FF01F0C0CFA02F21A
:1037D00020EA020262631C68606B4A6802EB8202A4
:1037E000053AB1F800C00CFA02F2024362631868AD
:1037F0003E4A904250D018683C4A904255D0002032
:1038000083F83C0002B030BC70470468206992B273
:1038100002EB42024FF0070C0CFA02F220EA02021D
:1038200022611C6820690A8802EB42028D6805FA51
:1038300002F202432261BFE70C2A16D81D68286BEA
:1038400002EB8202233A1F2404FA02F220EA020267
:103850002A631D68286B4A6802EB8202233A0C88AF
:1038600004FA02F202432A63C1E71D68E86A02EB28
:103870008202413A1F2404FA02F220EA0202EA62BA
:103880001D68E86A4A6802EB8202413A0C8804FA31
:1038900002F20243EA62AAE70A68122AABD114488C
:1038A000426842F480024260A5E70A68103A012AA1
:1038B000A5D80F48426842F4000242600A68102A04
:1038C0009DD10C4A12680C49A1FB0212920C02EB2A
:1038D00082025200019202E0019A013A0192019A99
:1038E000002AF9D18BE702208CE700BF00200140BD
:1038F000002301400000002083DE1B43DFF834D0AA
:103900000D480E490E4A002302E0D458C450043337
:10391000C4188C42F9D30B4A0B4C002301E013600E
:103920000432A242FBD3FDF7F3FA00F0FDF9FDF7F4
:10393000A7FA704700000220000000206C00002061
:103940005C5C00086C00002004030020FEE700001F
:10395000002310B50446C0E90033C0E90433836096
:1039600081814366C2818361194608225C3000F080
:1039700031F90D4B63620D4BA3620D4BE3620D4BAE
:1039800023630D4B24629C4206D003F168029442EB
:1039900002D0D0339C4205D104F15800BDE810405C
:1039A00000F0E6B910BD00BFD53A0008F73A0008AC
:1039B0002F3B0008533B0008B4010020024A034992
:1039C000034800F069B800BF100000207D460008E1
:1039D0002000002041680C4B994210B5044601D0EC
:1039E00000F04CFEA168094B994202D0204600F03D
:1039F00045FEE168064B994204D02046BDE81040E0
:103A000000F03CBE10BD00BFB40100201C0200202D
:103A10008402002010B50B4B0B4C0C4A1A60204658
:103A200000220421FFF794FF04F16800012209211C
:103A3000FFF78EFF04F1D0000222BDE810401221F2
:103A4000FFF786BFEC020020B4010020BD3900085A
:103A5000014800F08EB900BFF5020020014800F0D7
:103A600089B900BFF502002010B50446FFF7F0FF4A
:103A7000236A1BB1BDE81040FFF7F0BF044B23627F
:103A8000044B1B68002BF5D1FFF7C4FFF2E700BF22
:103A9000D5390008EC0200202DE9F8430746884696
:103AA00014460026D4E90195B9F1010905D5246829
:103AB000002CF7D13046BDE8F883AB89012B07D93C
:103AC000B5F90E30013303D029463846C0470643C6
:103AD0006835E9E710B50C46B1F90E1000F000F9B1
:103AE0000028ABBF636DA3891B1823F48053ACBFC0
:103AF0006365A38110BD2DE9F0411F468B89DB056D
:103B000005460C46164605D5B1F90E1002230022D3
:103B100000F0D4F8A389B4F90E1023F48053A381E4
:103B200032463B462846BDE8F04100F0EBB810B500
:103B30000C46B1F90E1000F0C1F8431CA38915BF63
:103B4000606523F4805343F48053A38118BFA3819D
:103B500010BDB1F90E1000F0A1B830B51446002C1C
:103B60009BB005461A4605DA8B2303604FF0FF3001
:103B70001BB030BD4FF40273ADF80C304FF00003B2
:103B8000199314BF04F1FF332346029305934FF6B4
:103B9000FF7300910491ADF80E3069461E9B00F052
:103BA00065FA431CBCBF8B232B60002CE0D0009B2C
:103BB00000221A70DCE7000007B5009313460A469E
:103BC000014603480068FFF7C8FF03B05DF804FB37
:103BD0001C00002002440346934200D1704703F8C2
:103BE000011BF9E7164B2DE9F0411F687C6C054677
:103BF0000E46ECB9502000F027F90246786420B94F
:103C0000104B11485B2100F0B7F8C0E90044C0E94F
:103C10000244C0E90444C0E90A44C0E90C44C0E9D4
:103C20000E44C0E91044C0E9124484610477446240
:103C30007A6C314628460123BDE8F04100F006B811
:103C40001C0000206C5B0008835B0008F0B5044694
:103C500008B9146844B1204614F8015B0F4617F800
:103C6000016B1EB965B91560002005E0B542F6D1BB
:103C7000002BF0D114600370F0BD1C460CE01DB9A0
:103C8000274614F8013B0E4616F8015BAB42F6D10D
:103C9000002BF2D000233B701460EDE738B5064DE1
:103CA0000023044608462B6001F032F8431C02D181
:103CB0002B6803B1236038BDF002002038B5074DF2
:103CC00004460846114600222A601A4601F048F8C8
:103CD000431C02D12B6803B1236038BDF0020020E1
:103CE00038B5074D04460846114600222A601A4698
:103CF00001F03EF8431C02D12B6803B1236038BDAC
:103D0000F002002038B5074D04460846114600224F
:103D10002A601A4601F042F8431C02D12B6803B115
:103D2000236038BDF002002070B50D4D0D4C641BB2
:103D3000A4100026A64209D10B4D0C4C01F038F816
:103D4000641BA4100026A64205D170BD55F8043BA3
:103D500098470136EEE755F8043B98470136F2E7FD
:103D6000545C0008545C0008545C0008585C00086F
:103D700070477047704700001FB514461A46094B3C
:103D80001B680546D8684CB1074B0091CDE901345A
:103D900006492B4600F09AFC00F0E2FC044B1C465E
:103DA000F3E700BF1C000020DD5B0008EA5B0008B1
:103DB000185C000838B50546002941D051F8043C8C
:103DC0000C1F002BB8BFE41800F0E8F81D4A136878
:103DD00033B9636014602846BDE8384000F0E4B8A9
:103DE000A34208D9206821188B4201BF19685B687B
:103DF00009182160EDE71A465B680BB1A342FAD9B6
:103E000011685018A0420BD1206801445018834219
:103E10001160E0D118685B68536008441060DAE70D
:103E200002D90C232B60D6E7206821188B4204BFEF
:103E300019685B68636004BF091821605460CAE7B1
:103E400038BD00BFFC020020024B0146186800F09C
:103E500025B800BF1C00002070B50F4E0C4631681D
:103E6000054611B900F05EFC30602146284600F09E
:103E700059FC431C03D14FF0FF34204670BDC41CD5
:103E800024F00304A042F8D0211A284600F04AFC8E
:103E90000130F2D1EFE700BFF80200202DE9F8432E
:103EA000CD1C25F0030508350C2D38BF0C25002D41
:103EB000064601DBA94204D90C2333600020BDE88B
:103EC000F883DFF8D48000F069F8D8F800301C4699
:103ED00044BB29463046FFF7BFFF431C044658D178
:103EE000D8F800402746002F43D1002C4BD0236840
:103EF0003946304604EB030900F014FC814542D1F9
:103F000021686D1A29463046FFF7A6FF01303AD0E6
:103F100023682B442360D8F800305A6862BBC8F885
:103F200000700FE02268521B20D40B2A17D96119A8
:103F3000A342256018BF5960636808BFC8F8001025
:103F400062514B60304600F02FF804F10B00231D46
:103F500020F00700C21A1CBF1B1AA350AFE762680B
:103F6000A3420CBFC8F800205A60EBE72346646800
:103F7000AEE73C467F68B6E71A465B68A342FBD1D2
:103F800000235360DEE70C233360304600F00CF86A
:103F900094E70560D6E700BFFC0200200148FFF768
:103FA000E8BE00BFF40200200148FFF7E3BE00BFF7
:103FB000F40200202DE9F0478E681F46BE420B68D0
:103FC00082460C4690462DD8B1F90C2012F4906F21
:103FD00026D06569096905EB4505A3EB010905EBE9
:103FE000D5757B1C4B446D109D4238BF1D46530553
:103FF00027D52946FFF752FF064660B321694A4696
:1040000000F0A0FBA38923F4906343F08003A38115
:10401000266165614E44A5EB09052660A5603E4614
:10402000BE4200D93E4620683246414600F060FB61
:10403000A3689B1BA3602368334423600020BDE872
:10404000F0872A4600F093FB06460028E0D121695C
:104050005046FFF7AFFE0C23CAF80030A38943F0A7
:104060004003A3814FF0FF30E9E700002DE9F04F56
:1040700098468B891B069DB007460D46144610D501
:104080000B6973B94021FFF709FF2860286130B937
:104090000C233B604FF0FF301DB0BDE8F08F402394
:1040A0006B610023099320238DF82930CDF80C8013
:1040B0003023DFF89C818DF82A304FF00109234628
:1040C0009A4613F8012B0AB1252AF9D1BAEB040B51
:1040D0000BD05B46224629463846FFF76BFF01307E
:1040E00000F0A780099A5A4409929AF80030002BF0
:1040F00000F09F8000234FF0FF32CDE905230AF145
:10410000010A049307938DF853301A9354460522FD
:1041100014F8011B4E48FCF773F8049AD8B9D0067E
:1041200044BF20238DF85330110744BF2B238DF853
:1041300053309AF800302A2B15D0079A54460020A5
:104140004FF00A0C214611F8013B303B092B4BD9AB
:10415000B0B1079214E0A0EB080309FA03F313438C
:104160000493A246D2E7039B191D1B680391002B01
:10417000BBBF5B4242F0020207930793B8BF0492B1
:1041800023782E2B0AD163782A2B32D1039B1A1D58
:104190001B68039243EAE37302340593DFF8B4A08B
:1041A000217803225046FCF72BF838B1049BA0EB92
:1041B0000A004022824013430134049314F8011B87
:1041C00025488DF828100622FCF71AF8002836D06A
:1041D000224B1BBB039B073323F0070308330393D6
:1041E000099B334409936AE70CFB02320C46012019
:1041F000A8E700230134059319464FF00A0C204626
:1042000010F8012B303A092A03D9002BC6D00591AA
:10421000C4E70CFB012104460123F0E703AB009344
:104220002A460F4B04A93846AFF30080421C0646CD
:10423000D6D1AB895B063FF52DAF09982CE703ABD0
:1042400000932A46064B04A9384600F079F8EDE7BA
:10425000195C00081F5C0008235C000800000000D7
:10426000B53F00082DE9F047164698468A680B6965
:10427000DDF820909342B8BF1346336091F8432095
:1042800007460C460AB1013333602368990642BFE2
:10429000336802333360256815F0060506D104F152
:1042A000190AE36832689B1AAB4226DC94F8433063
:1042B0002268003B18BF012392062BD404F143026D
:1042C00041463846C84701301ED02368226903F0B2
:1042D0000603042B02BFE5683368ED1AA3680CBF20
:1042E00025EAE57500259342C4BF9B1AED18002608
:1042F0001A34B5421AD1002008E001235246414643
:104300003846C847013003D14FF0FF30BDE8F08791
:104310000135C6E7E1185A1C302081F843002244D9
:1043200094F8451082F843100233C7E70123224670
:1043300041463846C8470130E6D00136D9E700008B
:104340002DE9FF470F7E0C9E782F914680460C4644
:104350009A4601F1430207D8622F0AD8002F00F0D5
:10436000D180582F00F0B88004F1420684F84270E2
:104370003AE0A7F16303152BF6D801A151F823F019
:10438000D9430008ED430008694300086943000869
:104390006943000869430008ED43000869430008C9
:1043A000694300086943000869430008EB440008BA
:1043B00017440008A5440008694300086943000841
:1043C0000D450008694300081744000869430008C8
:1043D00069430008AD44000833681A1D1B68326049
:1043E00004F1420684F8423001239CE033682068DF
:1043F000191D3160060601D51D6803E04506FBD591
:10440000B3F90050002D03DA2D236D4284F84330B8
:1044100058480A2311E021683368080653F8045B02
:1044200002D4490648BFADB26F2F5248336014BF63
:104430000A230823002184F843106668A660002E32
:1044400005DB21682E4321F0040121604BD0164684
:10445000B5FBF3F103FB1157C75D06F8017D2F464D
:10446000BB420D46F4D9082B0BD12368DF0708D5D2
:10447000236961689942DEBF302306F8013C06F1EA
:10448000FF36921B2261CDF800A04B4603AA2146BD
:104490004046FFF7E7FE01304AD14FF0FF3004B04D
:1044A000BDE8F087236843F0200323603248782773
:1044B00084F84570236831681F0651F8045B02D404
:1044C0005F0648BFADB23160D90744BF43F0200357
:1044D00023601DB11023ADE72648E9E7236823F0E8
:1044E00020032360F6E71646BDE733682568616957
:1044F000181D30602E061B6801D5196002E06806A1
:10450000FBD51980002323611646BCE733681A1DCA
:1045100032601E68626800213046FBF771FE08B108
:10452000801B606063682361002384F84330AAE73E
:104530002369324649464046D0470130ADD0236812
:104540009B0713D4E068039B9842B8BF1846A6E7C0
:104550000123324649464046D04701309DD00135BF
:10456000E36803995B1AAB42F2DCEBE7002504F148
:104570001906F5E72A5C00083B5C0008B1F90C203D
:10458000F8B5160705460C4654D44B68002B02DCE0
:104590000B6C002B48DDE66A002E45D0002312F498
:1045A00080522F68216A2B6030D0626DA389590731
:1045B00005D56368D21A636B0BB1236CD21A002342
:1045C000E66A216A2846B047431CA38906D12968B8
:1045D0001D292BD8284ACA40D60727D50022626059
:1045E000D9042269226004D5421C01D12B6803B989
:1045F0006065616B2F60B9B104F14403994202D048
:104600002846FFF7D7FB002363630DE0012328460C
:10461000B0470246501CC9D12B68002BC6D01D2BB9
:1046200001D0162B1DD12F60002021E043F0400364
:104630001BB21AE00F69002FF6D093070E6808BF6F
:104640004B690F6018BF0023F61B8B60002EEBDD5B
:10465000216AD4F828C033463A462846E047002865
:1046600007DCB4F90C3043F04003A3814FF0FF3076
:10467000F8BD0744361AE9E70100402038B50B6958
:1046800005460C4613B90025284638BD18B1036A03
:104690000BB9FFF7E9F9B4F90C30002BF3D0626ED7
:1046A000D00704D4990502D4A06DFFF762FB284619
:1046B0002146FFF763FF636EDA070546E4D4A3895A
:1046C0009B05E1D4A06DFFF755FBDDE70EB403B504
:1046D000014603AB054853F8042B0068019300F032
:1046E0009BF802B05DF804EB03B070471C0000209B
:1046F000884210B501EB020402D98442234607D850
:10470000431EA14208D011F8012B03F8012FF8E74E
:10471000024401468A4200D110BD13F8014D02F84F
:10472000014DF7E738B5064D0023044608462B60D7
:1047300000F026FB431C02D12B6803B1236038BD77
:10474000F00200200A44914200F1FF3300D170478B
:1047500010B511F8014B03F8014F9142F9D110BD8A
:1047600008B5062000F02CFA012000F01FFB2DE90F
:10477000F041074614460D4621B9BDE8F041114607
:10478000FFF78CBB2AB9FFF715FB25462846BDE885
:10479000F08100F031FA8442064602D8B4EB500FA3
:1047A000F4D821463846FFF779FB804608B94546DC
:1047B000ECE7B4422246294628BF3246FFF7C2FF43
:1047C00029463846FFF7F6FAF1E79368013B002BDC
:1047D00010B4936007DA9469A34201DB0A2902D17D
:1047E00010BC00F031B91368581C106019700846ED
:1047F00010BC7047F8B506460F461446D518AC42B3
:1048000001D1002007E014F8011B3A463046FFF7BB
:10481000DCFF431CF3D1F8BD2DE9F04F0D469DB0F0
:1048200014469846064618B1036A0BB9FFF71CF9FF
:104830006B6ED90705D4AB899A0502D4A86DFFF732
:1048400098FAAB891B0701D52B699BB929463046DD
:1048500000F038F970B16B6EDC0704D54FF0FF3013
:104860001DB0BDE8F08FAB899805F7D4A86DFFF7B0
:1048700081FAF3E70023099320238DF82930CDF83E
:104880000C803023DFF8AC818DF82A304FF001091D
:1048900023469A4613F8012B0AB1252AF9D1BAEB1F
:1048A000040B0BD05B46224629463046FFF7A2FF99
:1048B000013000F0A780099A5A4409929AF8003012
:1048C000002B00F09F8000234FF0FF32CDE905233D
:1048D0000AF1010A049307938DF853301A93544652
:1048E000052214F8011B5348FBF78AFC049AD8B937
:1048F000D10644BF20238DF85330130744BF2B2328
:104900008DF853309AF800302A2B15D0079A544668
:1049100000204FF00A0C214611F8013B303B092BD7
:104920004BD9B0B1079214E0A0EB080309FA03F3E6
:1049300013430493A246D2E7039B191D1B680391FE
:10494000002BBBBF5B4242F0020207930793B8BF44
:10495000049223782E2B0AD163782A2B32D1039B21
:104960001A1D1B68039243EAE37302340593DFF8D0
:10497000C8A0217803225046FBF742FC38B1049BC3
:10498000A0EB0A004022824013430134049314F840
:10499000011B2A488DF828100622FBF731FC00285D
:1049A0003FD0274B1BBB039B073323F00703083380
:1049B0000393099B3B4409936AE70CFB02320C46C4
:1049C0000120A8E700230134059319464FF00A0C93
:1049D000204610F8012B303A092A03D9002BC6D003
:1049E0000591C4E70CFB012104460123F0E703AB6A
:1049F00000932A46134B04A93046AFF300800746C4
:104A0000781CD6D16B6ED90705D4AB899A0502D430
:104A1000A86DFFF7AFF9AB895B063FF51FAF0998AB
:104A20001EE703AB00932A46064B04A93046FFF766
:104A300087FCE4E7195C00081F5C0008235C0008A1
:104A400000000000F5470008F8B50E46144605467C
:104A500018B1036A0BB9FFF707F8A369A360A3892C
:104A60001A0701D5236943B92146284600F02AF8E0
:104A700018B14FF0FF373846F8BD23682269981AFD
:104A80006369F6B28342374605DC21462846FFF7C4
:104A9000F5FD0028EDD1A368013BA36023685A1CF3
:104AA00022601E706269431C9A4204D0A389DB070E
:104AB000E1D50A2EDFD121462846FFF7DFFD002889
:104AC000D9D0D6E738B5294B054618680C4618B139
:104AD000036A0BB9FEF7C8FFB4F90C30190722D4EA
:104AE000DA0607D409222A6043F04003A3814FF07D
:104AF000FF3033E0580712D5616B41B104F1440334
:104B0000994202D02846FFF755F900236363A38931
:104B100023F02403A3810023636023692360A38916
:104B200043F00803A38123694BB9A38903F42073DD
:104B3000B3F5007F03D02146284600F08BF8B4F986
:104B40000C3013F001020AD00022A26062695242C6
:104B5000A261226942B913F08000C5D138BD99071E
:104B600058BF6269A260F4E70020F7E71C0000204C
:104B70001F2938B505460C4604D9162303604FF0AB
:104B8000FF3038BDC26B12B152F821304BB9284604
:104B900000F030F8224601462846BDE8384000F0D3
:104BA00017B8012B0AD0591C03D11623036001202A
:104BB000E7E7002142F82410204698470020E0E76C
:104BC000024B01461868FFF7D3BF00BF1C0000204E
:104BD00038B5074D00230446084611462B6000F007
:104BE000B7F8431C02D12B6803B1236038BD00BF66
:104BF000F002002000F09CB851F8043C181F002B74
:104C0000BCBF0B58C018704770B50C46B1F90E10F8
:104C1000002996B015461E460DDAA38913F0800FC1
:104C20004FF0000114BF40234FF480630020316037
:104C30002B6016B070BD6A4600F048F80028ECDB27
:104C4000019901F47041A1F50053594259414FF4C3
:104C50008063EBE78B89F7B59D0706460C4607D5C1
:104C600004F14703236023610123636103B0F0BDB6
:104C700001AB6A46FFF7C8FF009F0546394630463C
:104C8000FFF70CF948B9B4F90C309A05EED423F0CB
:104C9000030343F00203A381E2E7A389206043F00A
:104CA0008003A381019BC4E904075BB1B4F90E1032
:104CB000304600F01DF828B1A38923F0030343F028
:104CC0000103A381A3891D43A581CFE738B5074D13
:104CD00000230446084611462B6000F021F8431CCF
:104CE00002D12B6803B1236038BD00BFF002002061
:104CF00038B5064D0023044608462B6000F020F826
:104D0000431C02D12B6803B1236038BDF0020020A0
:104D1000024B58221A604FF0FF307047F00200201B
:104D2000024B58221A604FF0FF307047F00200200B
:104D3000024B58221A604FF0FF307047F0020020FB
:104D4000024B58221A600020704700BFF00200207A
:104D5000024B58221A604FF0FF307047F0020020DB
:104D6000024B58221A604FF0FF307047F0020020CB
:104D7000024B58221A604FF0FF307047F0020020BB
:104D8000044A1168034609B90349116010680344D5
:104D9000136070470003002008030020024B5822D4
:104DA0001A604FF0FF307047F0020020FEE700006D
:104DB000F8B500BFF8BC08BC9E467047F8B500BF08
:084DC000F8BC08BC9E467047D8
:104DC8000D0A0D0A000000003D3D3D3D3D3D3D3DC5
:104DD8003D3D3D3D3D3D3D3D3D3D3D3D3D3D3D3DFB
:104DE8003D3D3D3D3D3D3D3D3D3D3D3D3D3D3D3DEB
:104DF8000D0A00002020466C69707065722D5354AE
:104E08004D333220496E746567726174696F6E2024
:104E18004C6162730D0A0000202053656C65637451
:104E28002061206D6F64653A0D0A00002D2D2D2D2F
:104E38002D2D2D2D2D2D2D2D2D2D2D2D2D2D2D2D9A
:104E48002D2D2D2D2D2D2D2D2D2D2D2D2D2D2D2D8A
:104E58002D2D2D2D0D0A000020205B25645D203EA0
:104E68003E202573203C3C0D0A00000020205B25D5
:104E7800645D2020202025730D0A000053656E64B0
:104E8800202731272D273527206F722070726573F0
:104E980073205553455220627574746F6E20746F79
:104EA800206379636C652E0D0A00000050726573EB
:104EB80073205553455220627574746F6E206C6F61
:104EC8006E6720283E31732920746F20636F6E66E9
:104ED80069726D2E0D0A00000D0A20204D6F646561
:104EE800202564206973206E6F74207965742069A9
:104EF8006D706C656D656E7465642E0D0A0000003A
:104F080020204D6F64657320312D33206172652038
:104F1800617661696C61626C652E0D0A00000000A3
:104F28000D0A20204D6F6465202564206E6F742063
:104F380079657420696D706C656D656E7465642E35
:104F48000D0A00000D0A5374617274696E67204D72
:104F58006F64652025643A2025730D0A000000005F
:104F68004D6F6465206E6F7420696D706C656D653A
:104F78006E746564207965742E0D0A000D0A2D2D56
:104F88002D204D6F6465206578697465642E205204
:104F9800657475726E696E6720746F206D656E75C5
:104FA8002E202D2D2D0D0A005541525420436F6D92
:104FB8006D616E6420436F6E736F6C650000000056
:104FC8004750494F2052656D6F746520436F6E746A
:104FD800726F6C004144432053656E736F722044B6
:104FE800617368626F617264000000005350492069
:104FF800436F6D6D756E69636174696F6E204C697E
:105008006E6B0000437573746F6D20466C69707029
:10501800657220417070204D6F6465000D0A2D2D5A
:105028002D205541525420436F6D6D616E642043AD
:105038006F6E736F6C65202D2D2D0D0A000000001A
:10504800202068656C70202020202020202020202F
:105058002020202053686F77207468697320686562
:105068006C70206D6573736167650D0A0000000040
:105078002020737461747573202020202020202044
:105088002020202053686F7720757074696D652023
:10509800616E64204C4544207374617465730D0A15
:1050A8000000000020206C6564203C636F6C6F7208
:1050B8003E203C6F703E2020436F6E74726F6C20F0
:1050C800616E204C45440D0A00000000202020207D
:1050D8002020636F6C6F72733A20677265656E2C5F
:1050E800206F72616E67652C207265642C20626C7B
:1050F80075652C20616C6C0D0A00000020202020B2
:1051080020206F70733A202020206F6E2C206F664D
:10511800662C20746F67676C650D0A002020656334
:10512800686F203C746578743E2020202020202061
:105138004563686F2074657874206261636B2074BE
:105148006F207465726D696E616C0D0A0000000055
:1051580020207265736574202020202020202020C4
:105168002020202052657475726E20746F206D6F38
:1051780064652073656C656374696F6E0D0A000061
:105188000D0A25730D0A00000D0A55736167653A0B
:10519800206563686F203C746578743E0D0A0000D2
:1051A8004F4E00006F6666000D0A557074696D6594
:1051B8003A20256C756D20256C75730D0A0000006A
:1051C8004C4544733A2000002025733D25730000A8
:1051D800200000000D0A55736167653A206C65640C
:1051E800203C636F6C6F723E203C6F6E2F6F66665B
:1051F8002F746F67676C653E0D0A0000436F6C6F14
:1052080072733A20677265656E2C206F72616E67E3
:10521800652C207265642C20626C75652C20616C8D
:105228006C0D0A00616C6C000D0A556E6B6E6F7721
:105238006E20636F6C6F723A2025730D0A000000B0
:105248000D0A4F4B0D0A0000746F67676C6500000C
:105258000D0A556E6B6E6F776E206F706572617494
:10526800696F6E3A2025732028757365206F6E2F3D
:105278006F66662F746F67676C65290D0A000000FA
:1052880068656C70000000007374617475730000C9
:105298006C6564006563686F000000007265736583
:1052A800740000000D0A52657475726E696E67208D
:1052B800746F206D6F64652073656C656374696FC6
:1052C8006E2E2E2E0D0A00000D0A556E6B6E6F772E
:1052D8006E20636F6D6D616E643A202573202874AB
:1052E800797065202768656C702720666F72206367
:1052F8006F6D6D616E6473290D0A000020204D6F7B
:10530800646520313A205541525420436F6D6D61D8
:105318006E6420436F6E736F6C650D0A00000000A9
:1053280054797065202768656C702720666F722035
:10533800617661696C61626C6520636F6D6D616E29
:1053480064732E0D0A0000000D0A3E2000000000C4
:105358003E20000008200800677265656E000000A6
:105368006F72616E6765000072656400626C7565D6
:105378000000000048494748202831290000000063
:105388004C4F572020283029000000004F46460087
:105398000D0A2D2D2D204750494F2052656D6F74F1
:1053A8006520436F6E74726F6C20436F6D6D616E14
:1053B8006473202D2D2D0D0A000000002020736538
:1053C80074203C70696E3E203C6F6E7C6F66663E52
:1053D80020202D205365742070696E2068696768E5
:1053E8002F6C6F770D0A00002020746F67676C655B
:1053F800203C70696E3E20202020202020202D2077
:10540800546F67676C652070696E0D0A00000000B4
:10541800202072656164203C70696E3E2020202047
:105428002020202020202D20526561642070696E84
:105438002073746174650D0A0000000020207265F5
:10544800616420616C6C20202020202020202020F6
:1054580020202D205265616420616C6C2070696E7B
:10546800207374617465730D0A0000002020737442
:1054780061747573202020202020202020202020E7
:1054880020202D2053616D6520617320277265618E
:105498006420616C6C270D0A0000000020207265F2
:1054A8007365742020202020202020202020202008
:1054B80020202D2052657475726E20746F206D65E2
:1054C8006E750D0A00000000202050696E733A20A6
:1054D800677265656E2C206F72616E67652C20722D
:1054E80065642C20626C75652C20627574746F6E0F
:1054F8002C20616C6C0D0A00202028627574746F72
:105508006E20697320726561642D6F6E6C79290D48
:105518000A00000072656164000000000D0A202086
:1055280050696E205374617465733A0D0A00000067
:1055380020202020252D3873203A2025730D0A00BD
:1055480073657400202055736167653A207365742C
:10555800203C70696E3E203C6F6E7C6F66663E0D27
:105568000A0000002020556E6B6E6F776E20706900
:105578006E3A2025730D0A0031000000300000004B
:10558800202055736520276F6E27206F7220276FA4
:105598006666270D0A0000002020416C6C204C45EF
:1055A80044733A2025730D0A00000000202025735B
:1055B80020697320726561642D6F6E6C790D0A0025
:1055C800202025733A2025730D0A000020205573EA
:1055D8006167653A20746F67676C65203C70696E17
:1055E8003E0D0A002020416C6C204C454473207409
:1055F8006F67676C65640D0A000000002020557312
:105608006167653A2072656164203C70696E3E206E
:1056180020286F7220277265616420616C6C2729CD
:105628000D0A00002020556E6B6E6F776E20636F39
:105638006D6D616E643A2025732028747970652039
:105648002768656C7027290D0A00000020204D6F1F
:10565800646520323A204750494F2052656D6F7477
:105668006520436F6E74726F6C0D0A005479706513
:10567800202768656C702720666F7220636F6D6DD8
:10568800616E64732E0D0A00416C736F2061636351
:10569800657074732062696E617279207061636BE2
:1056A80065747320283078414120686561646572AB
:1056B800292E0D0A0D0A0000627574746F6E0000C1
:1056C800543A256C752C54454D503A25642E256462
:1056D800432C5241575F543A256C752C4558543A1F
:1056E80025642E25303264562C5241575F453A25A1
:1056F8006C750D0A000000000D0A2D2D2D20414467
:10570800432053656E736F722044617368626F61E2
:10571800726420436F6D6D616E6473202D2D2D0DA5
:105728000A00000020207374617274202020202059
:1057380020202020202D20537461727420636F6E06
:1057480074696E756F75732073747265616D696EB7
:10575800670D0A00202073746F70202020202020FD
:1057680020202020202D2053746F702073747265C0
:10577800616D696E670D0A00202073696E676C653C
:105788002020202020202020202D2054616B6520FF
:105798006F6E652072656164696E670D0A000000AE
:1057A800202072617465203C6D733E2020202020EB
:1057B800202D205365742073616D706C6520696EAF
:1057C80074657276616C202835302D313030303078
:1057D800290D0A002020737461747573202020201D
:1057E80020202020202D2053686F77206375727247
:1057F800656E742073657474696E67730D0A0000B2
:10580800202072657365742020202020202020200D
:10581800202D2052657475726E20746F206D656E30
:10582800750D0A000D0A202053747265616D20669B
:105838006F726D61743A0D0A000000002020543A1E
:105848003C6D733E2C54454D503A3C433E2C5241DE
:10585800575F543A3C7261773E2C4558543A3C564F
:105868003E2C5241575F453A3C7261773E0D0A0023
:105878000D0A20204368616E6E656C733A0D0A004C
:105888002020202054454D50203D20496E746572DB
:105898006E616C206469652074656D7065726174F1
:1058A8007572652073656E736F720D0A00000000D3
:1058B8002020202045585420203D2050413120618F
:1058C8006E616C6F6720696E7075742028636F6EE7
:1058D8006E65637420706F74206F72206C656176DA
:1058E8006520666C6F6174696E67290D0A00000097
:1058F8007374617274000000202053747265616DC6
:10590800696E6720737461727465642E20547970AF
:1059180065202773746F702720746F20656E642E5E
:105928000D0A000073746F7000000000202053748B
:105938007265616D696E672073746F707065642E2F
:1059480020256C752073616D706C65732074616BB4
:10595800656E2E0D0A00000073696E676C650000A5
:105968007261746500000000202043757272656ED4
:105978007420726174653A20256C75206D730D0A68
:1059880000000000202055736167653A2072617439
:1059980065203C35302D31303030303E0D0A000066
:1059A800202053616D706C65207261746520736589
:1059B8007420746F20256C75206D730D0A0000002B
:1059C800202053747265616D696E673A2025730DE6
:1059D8000A0000002020496E74657276616C3A20D6
:1059E80020256C75206D730D0A000000202053617E
:1059F8006D706C65733A202020256C750D0A0000C7
:105A080020204368616E6E656C733A202054454DC2
:105A1800502028696E7465726E616C292C20455877
:105A2800542028504131290D0A00000020205461DB
:105A38006B696E6720612073696E676C652072659B
:105A48006164696E673A0D0A2020000020204D6FBE
:105A5800646520333A204144432053656E736F7266
:105A68002044617368626F6172640D0A000000006F
:105A7800526561647320696E7465726E616C20741E
:105A8800656D702073656E736F72202B20504131E5
:105A980020616E616C6F672E0D0A00005479706585
:105AA800202768656C702720666F7220636F6D6DA4
:105AB800616E64732E0D0A0D0A0000002020496EE5
:105AC800697469616C2072656164696E673A200067
