:020000040800F2
:100000000000022061210008B1210008B121000890
:10001000B1210008B1210008B12100080000000052
:10002000000000000000000000000000B1210008F6
:10003000B121000800000000B1210008A908000853
:10004000B1210008B1210008B1210008B121000848
:10005000B1210008B1210008B1210008B121000838
:10006000B1210008B1210008B1210008B121000828
:10007000B1210008B1210008B1210008B121000818
:10008000B1210008B1210008B1210008B121000808
:10009000B1210008B1210008B1210008B1210008F8
:1000A000B1210008B1210008B1210008B1210008E8
:1000B000B1210008B1210008B1210008B1210008D8
:1000C000B1210008B1210008B1210008B1210008C8
:1000D000B1210008B1210008B1080008B1210008D1
:1000E000B1210008B1210008B1210008B1210008A8
:1000F000B1210008B1210008B1210008B121000898
:10010000B1210008B1210008B1210008B121000887
:10011000B1210008B1210008B1210008B121000877
:10012000B1210008B1210008B1210008B121000867
:10013000B1210008B1210008B1210008B121000857
:10014000B1210008B1210008B1210008B121000847
:10015000B1210008B1210008B1210008B121000837
:10016000B1210008B1210008B1210008B121000827
:10017000B1210008B1210008B121000800000000F1
:08018000B1210008B1210008C3
:1001900010B5054C237833B9044B13B10448AFF3C1
:1001A00000800123237010BD6800002000000000C3
:1001B0001436000808B5034B1BB103490348AFF3DD
:1001C000008008BD000000006C000020143600080C
:1001D00010F8012B11F8013B012A28BF9A42F7D0F1
:1001E000D01A7047034613F8012B002AFBD1181AC6
:1001F000013870470000000000000000000000000F
:1002000001F0FF01102A2BDB10F0070F08D010F8C7
:10021000013B013A8B422DD010F0070F42B3F6D1CB
:10022000F0B441EA012141EA014122F007047FF0E4
:1002300000070023F0E80256083C85EA010586EA3B
:10024000010685FA47F5A3FA87F586FA47F6A5FA77
:1002500087F68EB9EED1F0BC01F0FF0102F0070283
:1002600032B110F8013B013A83EA010313B1F8D12E
:100270000020704701387047002D06BF354603380F
:10028000073815F0010F07D1013015F4807F02BF48
:10029000013015F4C03F0130F0BC0138704700BF99
:1002A00053B94AB9002908BF00281CBF4FF0FF31DD
:1002B0004FF0FF3000F088B9ADF1080C6DE904CEC5
:1002C00000F006F8DDF804E0DDE9022304B0704731
:1002D0002DE9F047089D8E4604468846002B4AD1FA
:1002E0008A42174662D9B2FA82F64EB1C6F12003AD
:1002F00001FA06F820FA03F3B74043EA0808B440CD
:100300004FEA174E1FFA87FCB8FBFEF1230C0EFBD9
:10031000118843EA084301FB0CF29A4209D9FB1801
:1003200001F1FF3080F0EA809A4240F2E780023922
:100330003B449A1AA3B2B2FBFEF00EFB102243EA32
:10034000024300FB0CFC9C4509D9FB1800F1FF326D
:1003500080F0D6809C4540F2D3803B44023840EA8E
:100360000140A3EB0C0300211DB1F3400022C5E9BD
:100370000032BDE8F0878B4205D90DB1C5E9000117
:1003800000210846F5E7B3FA83F1002946D1734509
:1003900002D3824200F20581841A6EEB030201202F
:1003A0009046002DE5D0C5E90048E2E7002A00F0BC
:1003B0009080B2FA82F6002E40F0A4808A1A030CD4
:1003C0004FEA174E80B2BCB20121B2FBFEFC0EFB1D
:1003D0001C2243EA024304FB0CF29A4207D9FB18A1
:1003E0000CF1FF3802D29A4200F2E080C4469B1A18
:1003F000B3FBFEF20EFB123340EA034302FB04F4AC
:100400009C4207D9FB1802F1FF3002D29C4200F255
:10041000CA8002461B1B42EA0C40A5E7C1F1200638
:100420008B4022FA06F71F430EFA01F420FA06F376
:100430002EFA06FE4FEA1749234300FA01F81FFA85
:1004400087FCBEFBF9F01C0C09FB10EE44EA0E44DD
:1004500000FB0CFEA64502FA01F209D93C1900F195
:10046000FF3A80F09C80A64540F2998002383C44D7
:10047000A4EB0E041FFA83FEB4FBF9F309FB13444B
:100480004EEA044403FB0CFCA44508D93C1903F1D3
:10049000FF3E80F08280A4457FD9023B3C4443EA82
:1004A0000040A4EB0C04A0FB02EC64457346E1465B
:1004B00062D35FD05DB1B8EB030264EB090404FAC8
:1004C00006F622FA01F31E43CC40C5E90064002180
:1004D0004FE7B1FBF2FC010C41EA0E4180B240EA69
:1004E00001423B4638463C46B846BE462026B1FB54
:1004F000F7F1A2EB080241EA0C4166E7014618E772
:1005000010462CE7C6F120022EFA02F3B740B140A4
:1005100020FA02F24FEA174E0A43B3FBFEF8BCB2D0
:100520000EFB1833110C41EA034108FB04F9B040FB
:1005300089454FEA104380B23ED9791808F1FF3C53
:1005400001D289451FD8A1EB0901B1FBFEF909FBD6
:1005500004F80EFB191192B242EA0142424529D237
:10056000BA1809F1FF31C4D24245C2D2A9F1020141
:100570003A44BEE7F0459DD2BEEB02036CEB070C9C
:100580000138E14696E7A7EB09094944A8F1020CB6
:10059000B1FBFEF909FB04F8DBE773467FE7504641
:1005A00066E70846FDE63B44023A33E7ACF1020C4D
:1005B0003B441CE749469CE7A1EB0901C446B1FB5B
:1005C000FEF909FB04F8C4E7704700BFF0B589B035
:1005D0000024039404940594069407940194164B04
:1005E0001A6B42F001021A631A6B02F001020192C7
:1005F000019A02941A6B42F008021A631B6B03F013
:1006000008030293029B4FF4704603960127049758
:100610000A4D03A9284600F051FD03970494059460
:1006200003A9074800F04AFD22463146284600F05B
:1006300046FE09B0F0BD00BF00380240000C024089
:100640000000024010B50446FFF7CCFD4FF0FF3329
:1006500082B22146014801F0DAFA10BD880000207C
:100660000FB400B5C3B044AB53F8042B01934FF45F
:10067000807102A801F0D2FE02A8FFF7E3FF43B0A9
:100680005DF804EB04B0704738B505461748FFF72E
:10069000D9FF1748FFF7D6FF1648FFF7D3FF1648D4
:1006A000FFF7D0FF1548FFF7CDFF002407E0144BFC
:1006B00053F82420611C1348FFF7D2FF0134042CA7
:1006C00009DCA542F3D00E4B53F82420611C0E48E0
:1006D000FFF7C6FFF2E70648FFF7B4FF0B48FFF746
:1006E000B1FF0B48FFF7AEFF38BD00BF2C36000846
:1006F0003436000860360008843600089836000852
:10070000EC3B0008C4360008D8360008E83600087C
:1007100018370008F8B50020FFF7B6FF00273C4661
:100720003E4617E00D2B01D00A2B08D1002E59D0E0
:10073000711C2F48FFF794FF3046FFF7A5FF0121FA
:100740002C4800F0B5FD054630BB5CBB0A2000F02C
:10075000C7FB2C460A2301222749284801F0BDFA8D
:100760000028ECD1244D4FF0FF33012229462348C5
:1007700001F04DFA2B78A3F13101C9B20429D1D887
:1007800089B301311A48FFF76BFF1D48FFF75AFF85
:100790003046FFF779FFD2E7002CD7D100F09AFB63
:1007A0000746D3E700F096FBC01BB0F57A7F08D967
:1007B000DEB1711C1348FFF753FF3046FFF764FFAB
:1007C000C4E73228C2D901360F4A82FB0632F3173A
:1007D000C3EB620303EB8303F31ADEB23046FFF789
:1007E00053FFB3E731460846F8BD3146FBE700BF8B
:1007F00044370008000002408500002088000020E7
:100800006C37000894370008676666660268044B18
:100810009A4200D07047034B01221A70FAE700BFDA
:10082000004400408400002010B588B000230393EA
:1008300004930593069307930268194B9A4201D0DB
:1008400008B010BD0024019403F5FA331A6C42F489
:1008500000321A641A6C02F400320192019A029476
:100860001A6B42F001021A631B6B03F0010302933F
:10087000029B0C2303930223049301230593032378
:1008800006930723079303A9064800F017FC2246A6
:100890002146262000F08CFB262000F099FBCFE7B4
:1008A000004400400000024008B500F007FB08BD0E
:1008B00008B5024801F004FB08BD00BF8800002015
:1008C00000B583B072B64FF48041064800F0FDFCDD
:1008D00000230193019A044B9A42F4DC019B0133FB
:1008E0000193F7E7000C02401FA1070008B50A4872
:1008F0000A4B03604FF4E133436000238360C3601D
:1009000003610C2242618361C36101F050F900B9B7
:1009100008BDFFF7D5FF00BF88000020004400405D
:1009200000B593B03022002106A801F085FD002318
:1009300001930293039304930593022306930123E7
:10094000099310230A9306A800F0C8FC68B90F2386
:1009500001930021029103910491059101A800F0F7
:1009600027FF20B913B05DF804FBFFF7A9FFFFF7DD
:10097000A7FF000010B500F087FAFFF7D1FFFFF7DF
:1009800025FEFFF7B3FF144C01224FF470412046BF
:1009900000F095FCC82000F0A3FA00224FF470414B
:1009A000204600F08CFC05E00C48FFF74BFE0C489D
:1009B000FFF748FE0B4B00221A70FFF7ABFE044610
:1009C000094B53F82020411C0848FFF749FE002C32
:1009D000EAD100F0B3F9EAE7000C0240D43700088E
:1009E000F037000886000020EC3B0008B83700080C
:1009F0000C4B1A6842F001021A60002199601A68D3
:100A000022F0847222F480321A60074A5A601A680F
:100A100022F480221A60D960044B4FF000629A6081
:100A2000704700BF003802401030002400ED00E0A5
:100A300038B504460D460A1E18BF0122044B33F890
:100A40001010044800F03BFC034B1D5538BD00BF9F
:100A5000283C0008000C0240D000002008B50C48DB
:100A6000FFF7F0FD0B48FFF7EDFD0B48FFF7EAFD40
:100A70000A48FFF7E7FD0A48FFF7E4FD0948FFF7DA
:100A8000E1FD0948FFF7DEFD0848FFF7DBFD08BD83
:100A900090380008B4380008E43800081839000815
:100AA000403900087039000890390008C43900083E
:100AB00038B505460024032C08DC064B53F82410F7
:100AC0002846FFF785FB18B10134F4E74FF0FF34F7
:100AD000204638BD183C000808B510B1014603781F
:100AE0001BB90448FFF7AEFD08BD0348FFF7B8FD8A
:100AF000FAE700BFFC390008F439000810B500F02F
:100B0000E9F9144BA3FB00239B091349A1FB032123
:100B10004909C1EB0112A3EB82021048FFF7A0FDC7
:100B20000F48FFF78FFD002404E00E4A0E48FFF740
:100B300097FD0134032C08DC0C4B53F824100C4BAC
:100B40001B5D002BF1D00B4AF0E70B48FFF77AFD55
:100B500010BD00BFD34D6210898888881C3A0008F8
:100B6000343A0008183A00083C3A0008183C0008DB
:100B7000D0000020143A0008703B000810B504466D
:100B8000064B33F81010064800F09FFB054A135D32
:100B9000B3FA83F35B09135510BD00BF283C00086E
:100BA000000C0240D000002070B52E4C214601F010
:100BB0004BFC05462146002001F046FC75B1064677
:100BC00060B129492846FFF703FB044690B1284647
:100BD000FFF76EFF041E08DB651C0CE02348FFF7DF
:100BE00031FD2348FFF72EFD25E029462148FFF778
:100BF00037FD20E0042520493046FFF7E9FAA8B187
:100C00001E493046FFF7E4FAB0B11D493046FFF700
:100C1000DFFA08BBA5421BDD2046FFF7AFFF01341A
:100C2000F8E701212046FFF703FF0134A542F8DC75
:100C30001448FFF707FD70BDA54205DD00212046E1
:100C4000FFF7F6FE0134F7E70E48FFF7FBFCF2E78B
:100C50000C48FFF7F7FCEEE731460B48FFF700FDC5
:100C6000E9E700BF443A0008983A0008483A00080B
:100C7000703A00089C3A0008B43A0008183A000894
:100C8000C03A0008B83A0008C83A000838B500E091
:100C900001300378202BFBD003B938BD1D4901F08A
:100CA000D3FB04461C49002001F0CEFB05461B493E
:100CB0002046FFF78DFAC0B119492046FFF788FAA0
:100CC000B0B118492046FFF783FAA0B11649204673
:100CD000FFF77EFA98B115492046FFF779FA90B1EF
:100CE00021461348FFF7BCFCD7E7FFF7B7FED4E770
:100CF000FFF704FFD1E72846FFF756FFCDE7284668
:100D0000FFF7EAFEC9E70B48FFF79CFC0A4B0122FC
:100D10001A70C2E7443A000830360008F83A000872
:100D2000003B0008083B00080C3B0008143B00088F
:100D3000403B00081C3B00088600002038B500221C
:100D40002F4B1A702F4B1A604FF470412E4800F051
:100D5000B6FA2E48FFF776FC2D4C2046FFF772FCC2
:100D60002C48FFF76FFC2046FFF76CFC2A48FFF782
:100D700069FC2A48FFF766FC0AE0214C23782848E2
:100D80000025C554FFF782FF2570264B1B7833B32F
:100D9000244B1B78002B31D10A23012222492348FE
:100DA00000F09BFF0028F3D11F4B1B780D2BE4D0E4
:100DB0000A2BE2D07F2B16D0082B14D0104A1278C1
:100DC0007E2AE5D8501C0E49087015498B544FF007
:100DD000FF3301221449154800F019FFD8E71448E1
:100DE000FFF730FCD4E7064B1B78002BD0D0013B3B
:100DF000034A13700F48FFF725FCC9E738BD00BF51
:100E0000D5000020D0000020000C0240703B0008FC
:100E100034360008743B0008983B0008C03B0008CB
:100E2000D800002086000020D40000208800002088
:100E3000C83B0008CC3B00087047000010B50446D2
:100E40000E4B1A784FF47A73B3FBF2F30C4A106826
:100E5000B0FBF3F000F0C0F868B90F2C01D9012005
:100E60000AE0002221464FF0FF3000F0A1F8054BC8
:100E70001C60002000E0012010BD00BF0400002025
:100E8000000000200800002008B50B4B1A6842F44F
:100E900000721A601A6842F480621A601A6842F49A
:100EA00080721A60032000F071F80F20FFF7C6FF70
:100EB000FFF7C2FF002008BD003C0240034A116852
:100EC000034B1B780B441360704700BF5801002090
:100ED00004000020014B1868704700BF5801002033
:100EE00038B50446FFF7F6FF0546B4F1FF3F02D0E0
:100EF000044B1B781C44FFF7EDFF401BA042FAD3C4
:100F000038BD00BF04000020002807DB00F01F02EE
:100F1000400901239340024A42F82030704700BF45
:100F200000E100E0002808DB0901C9B200F16040DF
:100F300000F5614080F80013704700F00F000901D0
:100F4000C9B2014B1954704714ED00E000B500F030
:100F50000700C0F1070CBCF1040F28BF4FF0040CD0
:100F6000031D062B0FD9C31E4FF0FF3E0EFA0CF0E7
:100F700021EA000199400EFA03FE22EA0E0241EA3C
:100F800002005DF804FB0023EEE70000074AD36887
:100F900023F4E0631B041B0C000200F4E060034335
:100FA00043F0BF6343F40033D360704700ED00E0CB
:100FB00010B50446054BD868C0F30220FFF7C6FF02
:100FC00001462046FFF7AEFF10BD00BF00ED00E078
:100FD00008B5FFF799FF08BD0138B0F1807F0BD24B
:100FE0004FF0E0235861054AF02182F823100020D9
:100FF000986107221A6170470120704700ED00E0F8
:1010000070B50446866DFFF765FF94F83530DBB2A6
:10101000022B06D080236365002384F8343001203E
:1010200070BD05462268136823F01603136022681A
:10103000536923F080035361236CE3B12268136882
:1010400023F0080313602268136823F00103136080
:1010500023681B6813F0010F11D0FFF73BFF431B00
:10106000052BF5D920236365032084F83500002380
:1010700084F83430D4E7A36C002BDFD1E3E7E26DD2
:101080003F239340B360012384F83530002084F877
:101090003400C5E790F83530DBB2022B03D0802353
:1010A000436501207047052380F8353002681368D6
:1010B00023F00103136000207047000000230F2B72
:1010C00000F2EC8030B583B068E085684FEA430EEB
:1010D000032404FA0EF425EA0405CC6804FA0EF49D
:1010E0002C438460446824EA02044A68C2F3001274
:1010F0009A40224342605FE0DC08083450F8242024
:1011000003F00705AD004FF00F0E0EFA05FE22EAC0
:101110000E0E0A69AA4042EA0E0240F824205FE05F
:10112000072200E0002202FA0EF22A4302345C4D4C
:1011300045F824205B4A94686FEA0C0224EA0C0507
:10114000D1F804E01EF4801F01D04CEA0405554C90
:10115000A560E46802EA0405D1F804E01EF4001F6B
:1011600001D04CEA04054F4CE560646802EA0405CE
:10117000D1F804E01EF4003F01D04CEA0405494CCC
:101180006560246822404D6815F4803F01D04CEA28
:101190000402444C226001330F2B7DD801229A4077
:1011A0000C6804EA020C32EA0404F4D14C6804F03E
:1011B0000304013C012C88D94A6802F00302032A87
:1011C00009D0C4685D000322AA4024EA02048A68A8
:1011D000AA402243C2604A6802F00302022A8BD06E
:1011E00004684FEA430E032202FA0EF224EA0204D4
:1011F0004A6802F0030202FA0EF2224302604A68D1
:1012000012F4403FC7D000220192274A546C44F4A4
:1012100080445464526C02F480420192019A9C080A
:10122000A51C1F4A52F8255003F0030E4FEA8E0EFC
:101230000F2202FA0EF225EA02051C4A90423FF400
:1012400071AF02F5806290421AD002F5806290423E
:1012500018D002F58062904216D002F5806290426A
:1012600014D002F58062904212D002F58062904262
:1012700010D002F5806290423FF452AF082252E74C
:10128000012250E702224EE703224CE704224AE7FC
:10129000052248E7062246E703B030BD704700BF8D
:1012A00000380140003C014000380240000002408C
:1012B0000369194201D001207047002070470AB12C
:1012C00081617047090481617047436901EA030243
:1012D00021EA030141EA024181617047002800F0E0
:1012E000E08170B582B00446036813F0010F3BD073
:1012F0009F4B9B6803F00C03042B2CD09C4B9B68EA
:1013000003F00C03082B21D06368B3F5803F4FD066
:10131000B3F5A02F52D0964B1A6822F480321A608F
:101320001A6822F480221A606368002B50D0FFF7FD
:10133000D1FD05468E4B1B6813F4003F14D1FFF717
:10134000C9FD401B6428F5D90320B1E1884B5B68D7
:1013500013F4800FD8D0864B1B6813F4003F03D0E2
:101360006368002B00F09F81236813F0020F54D0B4
:101370007F4B9B6813F00C0F3ED07D4B9B6803F0B6
:101380000C03082B33D0E368002B68D0794B012283
:101390001A60FFF79FFD0546754B1B6813F0020F9F
:1013A00054D1FFF797FD401B0228F5D903207FE1B8
:1013B0006F4A136843F480331360B5E76C4B1A68C7
:1013C00042F480221A601A6842F480321A60ABE755
:1013D000FFF780FD0546664B1B6813F4003FC3D042
:1013E000FFF778FD401B6428F5D9032060E1604BCE
:1013F0005B6813F4800FC6D15D4B1B6813F0020FBE
:1014000003D0E368012B40F05081594A136823F060
:10141000F803216943EAC1031360236813F0080F3E
:1014200042D063696BB3534B0122C3F8802EFFF7A0
:1014300051FD05464E4B5B6F13F0020F34D1FFF7A1
:1014400049FD401B0228F5D9032031E1484A1368C1
:1014500023F0F803216943EAC1031360DDE7454B3C
:1014600000221A60FFF736FD0546414B1B6813F05A
:10147000020FD2D0FFF72EFD401B0228F5D9032022
:1014800016E13C4B0022C3F8802EFFF723FD0546F2
:10149000374B5B6F13F0020F06D0FFF71BFD401BAD
:1014A0000228F5D9032003E1236813F0040F77D055
:1014B0002F4B1B6C13F0805F33D1002301932C4B17
:1014C0001A6C42F080521A641B6C03F08053019333
:1014D000019B0125284B1B6813F4807F23D0A36850
:1014E000012B34D0052B38D0214B1A6F22F001028A
:1014F0001A671A6F22F004021A67A368002B3DD006
:10150000FFF7E8FC06461A4B1B6F13F0020F46D19B
:10151000FFF7E0FC801B41F288339842F3D90320A7
:10152000C6E00025D6E7144A136843F480731360BD
:10153000FFF7D0FC0646104B1B6813F4807FCED11A
:10154000FFF7C8FC801B0228F5D90320B0E0084A49
:10155000136F43F001031367CFE7054B1A6F42F097
:1015600004021A671A6F42F001021A67C5E700BF4A
:10157000003802400000474200700040FFF7AAFC1C
:101580000646524B1B6F13F0020F08D0FFF7A2FC68
:10159000801B41F288339842F3D9032088E0EDB9EB
:1015A000A369002B00F08380484A926802F00C0285
:1015B000082A51D0022B17D0454B00221A66FFF79C
:1015C00089FC0446414B1B6813F0007F42D0FFF7B3
:1015D00081FC001B0228F5D9032069E03B4A136C0B
:1015E00023F080531364DBE7394B00221A66FFF7C0
:1015F00071FC0546354B1B6813F0007F06D0FFF7E2
:1016000069FC401B0228F5D9032051E0E369226AF6
:101610001343626A43EA8213A26A5208013A43EA18
:101620000243E26A43EA0263284A5360284B0122DC
:101630001A66FFF74FFC0446244B1B6813F0007F2B
:1016400006D1FFF747FC001B0228F5D903202FE045
:1016500000202DE000202BE0012B2BD01B4B5B68E2
:1016600003F48001E269914226D103F03F02216A2E
:101670008A4223D1616A47F6C0721A40B2EB811FD9
:101680001ED103F44031A26A5208013AB1EB024F75
:1016900018D103F07063E26AB3EB026F14D100203B
:1016A00006E001207047012002E0012000E0002058
:1016B00002B070BD0120FBE70120F9E70120F7E748
:1016C0000120F5E70120F3E70120F1E700380240AF
:1016D0000000474208B5334B9B6803F00C03042B12
:1016E0005BD0082B5BD12F4B5A6802F03F025B683E
:1016F00013F4800F2CD02B4B5868C0F388104FEA9E
:10170000401CBCEB000C6EEB0E0E4FEA8E1343EA4E
:101710009C634FEA8C11B1EB0C0163EB0E03DB0011
:1017200043EA5173C90011EB000C43F10003590265
:1017300000234FEA4C2041EADC51FEF7B1FD194B82
:101740005B68C3F3014301335B00B0FBF3F008BDFA
:10175000144B5868C0F388104FEA401CBCEB000CD7
:101760006EEB0E0E4FEA8E1343EA9C634FEA8C1128
:10177000B1EB0C0163EB0E03DB0043EA5173C900CC
:1017800011EB000C43F10003990200234FEA8C2077
:1017900041EA9C51FEF784FDD1E70348D7E70348AF
:1017A000D5E700BF0038024000127A000024F400A0
:1017B000002800F09B8070B50D4604464F4B1B6817
:1017C00003F007038B4208D2CBB24C4A1370136864
:1017D00003F007038B4240F08B80236813F0020F65
:1017E00017D013F0040F04D0454A936843F4E05334
:1017F0009360236813F0080F04D0414A936843F4C0
:10180000604393603E4A936823F0F003A1680B4362
:101810009360236813F0010F32D06368012B21D04D
:101820009A1E012A25D9364A126812F0020F61D099
:1018300033498A6822F0030213438B60FFF74AFBA7
:1018400006462F4B9B6803F00C036268B3EB820FD4
:1018500016D0FFF73FFB801B41F288339842F0D946
:10186000032042E0264A126812F4003FE0D1012032
:101870003BE0234A126812F0007FD9D1012034E006
:101880001E4B1B6803F00703AB4207D9EAB21B4BA0
:101890001A701B6803F00703AB422DD1236813F0C5
:1018A000040F06D0164A936823F4E053E1680B4313
:1018B0009360236813F0080F07D0114A936823F44C
:1018C0006043216943EAC1039360FFF703FF0C4BB8
:1018D0009B68C3F303130B4AD35CD8400A4B1860D0
:1018E0000A4B1868FFF7AAFA002070BD0120704764
:1018F0000120FAE70120F8E70120F6E7003C02406A
:1019000000380240083C00080000002008000020C9
:10191000014B1868704700BF0000002008B5FFF7B2
:10192000F7FF044B9B68C3F38223034AD35CD84080
:1019300008BD00BF00380240003C000808B5FFF7B2
:10194000E7FF044B9B68C3F34233034AD35CD840A0
:1019500008BD00BF00380240003C0008026802F1E8
:101960000C0353E8003F23F490730C3242E800313B
:101970000029F3D1026802F1140353E8003F23F079
:101980000103143242E800310029F3D1036B012B2B
:1019900005D0202380F8423000230363704702689B
:1019A00002F10C0353E8003F23F010030C3242E82D
:1019B00000310029F3D1ECE790F84130DBB2212B64
:1019C00001D0022070478368B3F5805F17D0036AA7
:1019D0005A1C02621A7803685A60C38C9BB2013B9E
:1019E0009BB2C3844BB90268D36823F08003D360F1
:1019F0000268D36843F04003D36000207047036956
:101A0000002BE4D1036A1B880268C3F30803536008
:101A1000036A02330362E0E710B504460268136903
:101A200023F44053C1680B431361836802691A436E
:101A300043691A43C3691A430168CB6823F4164308
:101A400023F00C031343CB600268536923F4407303
:101A500081690B4353610368314A934206D002F512
:101A60008062934202D0FFF759FF01E0FFF766FF63
:101A7000E369B3F5004F29D00021031849411B1831
:101A800041F10001C90041EA5371DB001818636895
:101A90004FEA83024FEA937341F10001FEF700FC25
:101AA000204AA2FB00314909642303FB11031B01F7
:101AB0003233A2FB03235B0903F0F00202EB0112B5
:101AC00003F00F03216813448B6010BD002302183C
:101AD00043EB0301121841F10001C90041EA5271C0
:101AE000D200101841F10001626892185B41FEF7C4
:101AF000D7FB0C4AA2FB00314909642303FB110305
:101B0000DB003233A2FB03235B095A0002F4F872B4
:101B100002EB011203F00703216813448B60D4E742
:101B2000001001401F85EB512DE9F04383B00546BD
:101B30000E4617469946DDF828802B681C6836EA61
:101B400004040CBF01240024BC4228D1B8F1FF3F9B
:101B5000F3D0FFF7BFF9A0EB0900404523D8B8F157
:101B6000000F22D02B68DA6812F0040FE5D0802E27
:101B7000E3D0402EE1D01A6812F0080FDDD0002427
:101B800001941A6801925B680193019B2846FFF754
:101B9000E5FE08236B6485F84040012000E000204A
:101BA00003B0BDE8F0830320FAE70320F8E760B351
:101BB00010B5044690F8413013B3242384F8413023
:101BC0002268D36823F40053D3602046FFF724FF34
:101BD0002268136923F4904313612268536923F048
:101BE0002A0353612268D36843F40053D360002072
:101BF0006064202384F8413084F84230606310BD73
:101C000080F84030FEF710FED7E7012070472DE93D
:101C1000F04182B01E4690F84130DBB2202B56D105
:101C200004460D469046002955D00AB901204FE0E0
:101C300000234364212380F84130FFF74BF9074626
:101C4000A4F82480A4F82680A368B3F5805F02D0AE
:101C50004FF0000814E023692BB34FF000080FE0A9
:101C6000202384F84130032032E038F8023B226818
:101C7000C3F308035360E28C92B2013A92B2E28459
:101C8000E38C9BB293B100963B4600228021204614
:101C9000FFF74AFF0028E3D1002DE6D015F8012B0D
:101CA00023685A60E7E7A8460025E9E700963B4627
:101CB000002240212046FFF737FF18B9202384F87F
:101CC000413005E0202384F84130032000E0022069
:101CD00002B0BDE8F0810120FAE72DE9F04182B0C1
:101CE0001E4690F84230DBB2202B59D104460D46F7
:101CF0009046002958D00AB9012052E000234364DD
:101D0000222280F842200363FFF7E4F80746A4F894
:101D10002C80A4F82E80A368B3F5805F02D04FF02A
:101D200000081CE0236913B14FF0000817E0A84633
:101D3000002514E0202384F84230032031E023689A
:101D40005B68C3F3080328F8023B03E023685B6881
:101D50002B700135E28D92B2013A92B2E285E38DA9
:101D60009BB2C3B100963B46002220212046FFF7DC
:101D7000DBFE0028DED1002DE1D0A368B3F5805F43
:101D8000E4D013B92369002BE0D023685B6803F02B
:101D90007F032B70DDE7202384F84230002000E031
:101DA000022002B0BDE8F0810120FAE7704708B5D3
:101DB0000168CA6822F04002CA60202280F84120EF
:101DC000FFF7F4FF002008BD704708B5806B0023C3
:101DD000C385FFF7F9FF08BD704790F84230DBB2CA
:101DE000222B69D18368B3F5805F4FD0826AB3F547
:101DF000805F04D0002B56D10369002B53D10368B8
:101E00005B681370836A01338362C38D9BB2013BAD
:101E10009BB2C385002B51D100B583B00268D36853
:101E200023F02003D3600268D36823F48073D36067
:101E30000268536923F001035361202380F8423084
:101E400000234363036B012B33D100230363026838
:101E500002F10C0353E8003F23F010030C3242E878
:101E600000310029F3D103681A6812F0100F06D070
:101E7000002201921A6801925B680193019B818D97
:101E8000FFF7AAFF002003B05DF804FB0269002AF7
:101E9000ACD1826A03685B68C3F308031380836A6A
:101EA00002338362B1E703685B6803F07F0313705A
:101EB000A8E7FEF7ABFCE5E702207047002070477B
:101EC00010B582B0044602681368D068516913F0F7
:101ED0000F0F09D113F0200F0CD010F0200F09D0F4
:101EE0002046FFF77AFF16E011F0010115D110F43A
:101EF000907F12D1216B012979D013F0800F03D08C
:101F000010F0800F40F0218113F0400F03D010F04B
:101F1000400F40F01E8102B010BD13F0010F06D03B
:101F200010F4807F03D0626C42F00102626413F00F
:101F3000040F04D019B1626C42F00202626413F023
:101F4000020F04D019B1626C42F00402626413F013
:101F5000080F07D010F0200F00D119B1626C42F0C9
:101F600008026264626C002AD5D013F0200F02D000
:101F700010F0200F29D123685B6903F04003626CE5
:101F800012F0080F00D163B32046FFF7E7FC236887
:101F90005B6913F0400F20D0226802F1140353E86C
:101FA000003F23F04003143242E800310029F3D10E
:101FB000E36B73B1694A1A65E06BFFF76BF80028B1
:101FC000A9D0E06B036D9847A5E72046FFF705FF12
:101FD000D1E72046FFF7F8FE9DE72046FFF7F4FE25
:101FE00099E72046FFF7F0FE0023636493E713F0C0
:101FF000100F82D010F0100F3FF47FAF0023019339
:102000001368019353680193019B536913F0400FC8
:102010005FD0E26B13685B689BB2002B4AD0A18D46
:10202000994247D9E385D369B3F5807F37D02268D9
:1020300002F10C0353E8003F23F480730C3242E8B2
:1020400000310029F3D1226802F1140353E8003F64
:1020500023F00103143242E800310029F3D1226851
:1020600002F1140353E8003F23F04003143242E826
:1020700000310029F3D1202384F842300023236368
:10208000226802F10C0353E8003F23F010030C32E6
:1020900042E800310029F3D1E06BFEF7B1FF0223E3
:1020A0006363A18DE38D9BB2C91A89B22046FFF705
:1020B00093FE30E7A18D99427FF42DAFD369B3F53C
:1020C000807F7FF428AF022363632046FFF784FEFE
:1020D00021E7A18DE38D9BB2C91A89B2E38D9BB232
:1020E000002B3FF418AF00293FF415AF226802F12E
:1020F0000C0353E8003F23F490730C3242E80030A5
:102100000028F3D1226802F1140353E8003F23F0C2
:102110000103143242E800300028F3D1202384F870
:10212000423000232363226802F10C0353E8003F8E
:1021300023F010030C3242E800300028F3D10223D0
:1021400063632046FFF748FEE5E62046FFF734FCD0
:10215000E1E62046FFF72BFEDDE600BFCB1D0008C1
:10216000DFF834D00D480E490E4A002302E0D4585F
:10217000C4500433C4188C42F9D30B4A0B4C0023CF
:1021800001E013600432A242FBD3FEF731FC00F001
:10219000FDF9FEF7EFFB7047000002200000002071
:1021A00068000020203D000868000020AC020020EC
:1021B000FEE70000002310B50446C0E90033C0E983
:1021C0000433836081814366C2818361194608229A
:1021D0005C3000F031F90D4B63620D4BA3620D4B87
:1021E000E3620D4B23630D4B24629C4206D003F146
:1021F0006802944202D0D0339C4205D104F15800C9
:10220000BDE8104000F0E6B910BD00BF392300085A
:102210005B23000893230008B72300085C0100201B
:10222000024A0349034800F069B800BF0C000020CF
:10223000E12E00081C00002041680C4B994210B5AB
:10224000044601D000F04CFEA168094B994202D02F
:10225000204600F045FEE168064B994204D0204636
:10226000BDE8104000F03CBE10BD00BF5C01002086
:10227000C40100202C02002010B50B4B0B4C0C4A63
:102280001A60204600220421FFF794FF04F1680041
:1022900001220921FFF78EFF04F1D0000222BDE8E0
:1022A00010401221FFF786BF940200205C0100203D
:1022B00021220008014800F08EB900BF9D020020D5
:1022C000014800F089B900BF9D02002010B5044606
:1022D000FFF7F0FF236A1BB1BDE81040FFF7F0BF26
:1022E000044B2362044B1B68002BF5D1FFF7C4FF9E
:1022F000F2E700BF39220008940200202DE9F843DC
:102300000746884614460026D4E90195B9F101092B
:1023100005D52468002CF7D13046BDE8F883AB8999
:10232000012B07D9B5F90E30013303D029463846C1
:10233000C04706436835E9E710B50C46B1F90E1001
:1023400000F000F90028ABBF636DA3891B1823F4CC
:102350008053ACBF6365A38110BD2DE9F0411F46DA
:102360008B89DB0505460C46164605D5B1F90E10DE
:102370000223002200F0D4F8A389B4F90E1023F44C
:102380008053A38132463B462846BDE8F04100F029
:10239000EBB810B50C46B1F90E1000F0C1F8431CB3
:1023A000A38915BF606523F4805343F48053A38150
:1023B00018BFA38110BDB1F90E1000F0A1B830B55F
:1023C0001446002C9BB005461A4605DA8B230360A1
:1023D0004FF0FF301BB030BD4FF40273ADF80C303E
:1023E0004FF00003199314BF04F1FF332346029307
:1023F00005934FF6FF7300910491ADF80E306946D6
:102400001E9B00F065FA431CBCBF8B232B60002C85
:10241000E0D0009B00221A70DCE7000007B50093B3
:1024200013460A46014603480068FFF7C8FF03B099
:102430005DF804FB1800002002440346934200D1DB
:10244000704703F8011BF9E7164B2DE9F0411F68AF
:102450007C6C05460E46ECB9502000F027F9024688
:10246000786420B9104B11485B2100F0B7F8C0E93F
:102470000044C0E90244C0E90444C0E90A44C0E998
:102480000C44C0E90E44C0E91044C0E91244846120
:10249000047744627A6C314628460123BDE8F04156
:1024A00000F006B818000020303C0008473C000847
:1024B000F0B5044608B9146844B1204614F8015B2D
:1024C0000F4617F8016B1EB965B91560002005E0CD
:1024D000B542F6D1002BF0D114600370F0BD1C465C
:1024E0000CE01DB9274614F8013B0E4616F8015BB7
:1024F000AB42F6D1002BF2D000233B701460EDE725
:1025000038B5064D0023044608462B6001F032F82A
:10251000431C02D12B6803B1236038BD9802002010
:1025200038B5074D04460846114600222A601A466F
:1025300001F048F8431C02D12B6803B1236038BD79
:102540009802002038B5074D04460846114600227F
:102550002A601A4601F03EF8431C02D12B6803B1F1
:10256000236038BD9802002038B5074D0446084660
:10257000114600222A601A4601F042F8431C02D19B
:102580002B6803B1236038BD9802002070B50D4D53
:102590000D4C641BA4100026A64209D10B4D0C4C17
:1025A00001F038F8641BA4100026A64205D170BDC6
:1025B00055F8043B98470136EEE755F8043B984739
:1025C0000136F2E7183D0008183D0008183D0008E4
:1025D0001C3D000870477047704700001FB5144647
:1025E0001A46094B1B680546D8684CB1074B009149
:1025F000CDE9013406492B4600F09AFC00F0E2FCDC
:10260000044B1C46F3E700BF18000020A13C000863
:10261000AE3C0008DC3C000838B50546002941D036
:1026200051F8043C0C1F002BB8BFE41800F0E8F888
:102630001D4A136833B9636014602846BDE838400A
:1026400000F0E4B8A34208D9206821188B4201BFEA
:1026500019685B6809182160EDE71A465B680BB1E1
:10266000A342FAD911685018A0420BD12068014446
:10267000501883421160E0D118685B6853600844C9
:102680001060DAE702D90C232B60D6E72068211806
:102690008B4204BF19685B68636004BF091821603E
:1026A0005460CAE738BD00BFA4020020024B0146B7
:1026B000186800F025B800BF1800002070B50F4E54
:1026C0000C463168054611B900F05EFC30602146C9
:1026D000284600F059FC431C03D14FF0FF3420463C
:1026E00070BDC41C24F00304A042F8D0211A28466F
:1026F00000F04AFC0130F2D1EFE700BFA002002059
:102700002DE9F843CD1C25F0030508350C2D38BF05
:102710000C25002D064601DBA94204D90C233360A9
:102720000020BDE8F883DFF8D48000F069F8D8F81D
:1027300000301C4644BB29463046FFF7BFFF431C10
:10274000044658D1D8F800402746002F43D1002C2A
:102750004BD023683946304604EB030900F014FCE3
:10276000814542D121686D1A29463046FFF7A6FF00
:1027700001303AD023682B442360D8F800305A68DF
:1027800062BBC8F800700FE02268521B20D40B2AED
:1027900017D96119A342256018BF5960636808BF43
:1027A000C8F8001062514B60304600F02FF804F179
:1027B0000B00231D20F00700C21A1CBF1B1AA350D8
:1027C000AFE76268A3420CBFC8F800205A60EBE78D
:1027D00023466468AEE73C467F68B6E71A465B6806
:1027E000A342FBD100235360DEE70C233360304665
:1027F00000F00CF894E70560D6E700BFA4020020C3
:102800000148FFF7E8BE00BF9C0200200148FFF727
:10281000E3BE00BF9C0200202DE9F0478E681F46F2
:10282000BE420B6882460C4690462DD8B1F90C206A
:1028300012F4906F26D06569096905EB4505A3EB95
:10284000010905EBD5757B1C4B446D109D4238BFCB
:102850001D46530527D52946FFF752FF064660B3AC
:1028600021694A4600F0A0FBA38923F4906343F05A
:102870008003A381266165614E44A5EB09052660AE
:10288000A5603E46BE4200D93E46206832464146DB
:1028900000F060FBA3689B1BA360236833442360A4
:1028A0000020BDE8F0872A4600F093FB064600288A
:1028B000E0D121695046FFF7AFFE0C23CAF8003083
:1028C000A38943F04003A3814FF0FF30E9E7000004
:1028D0002DE9F04F98468B891B069DB007460D46A3
:1028E000144610D50B6973B94021FFF709FF286022
:1028F000286130B90C233B604FF0FF301DB0BDE8BC
:10290000F08F40236B610023099320238DF8293039
:10291000CDF80C803023DFF89C818DF82A304FF001
:10292000010923469A4613F8012B0AB1252AF9D149
:10293000BAEB040B0BD05B46224629463846FFF71C
:102940006BFF013000F0A780099A5A4409929AF867
:102950000030002B00F09F8000234FF0FF32CDE9C4
:1029600005230AF1010A049307938DF853301A9353
:102970005446052214F8011B4E48FDF741FC049A09
:10298000D8B9D00644BF20238DF85330110744BF77
:102990002B238DF853309AF800302A2B15D0079A44
:1029A000544600204FF00A0C214611F8013B303B01
:1029B000092B4BD9B0B1079214E0A0EB080309FA38
:1029C00003F313430493A246D2E7039B191D1B682C
:1029D0000391002BBBBF5B4242F0020207930793B7
:1029E000B8BF049223782E2B0AD163782A2B32D1D8
:1029F000039B1A1D1B68039243EAE3730234059399
:102A0000DFF8B4A0217803225046FDF7F9FB38B176
:102A1000049BA0EB0A00402282401343013404933C
:102A200014F8011B25488DF828100622FDF7E8FB55
:102A3000002836D0224B1BBB039B073323F0070330
:102A400008330393099B334409936AE70CFB023272
:102A50000C460120A8E700230134059319464FF0E6
:102A60000A0C204610F8012B303A092A03D9002B12
:102A7000C6D00591C4E70CFB012104460123F0E711
:102A800003AB00932A460F4B04A93846AFF30080EE
:102A9000421C0646D6D1AB895B063FF52DAF09989F
:102AA0002CE703AB00932A46064B04A9384600F0F6
:102AB00079F8EDE7DD3C0008E33C0008E73C00085E
:102AC00000000000192800082DE9F0471646984636
:102AD0008A680B69DDF820909342B8BF13463360D3
:102AE00091F8432007460C460AB10133336023684E
:102AF000990642BF336802333360256815F0060536
:102B000006D104F1190AE36832689B1AAB4226DC4D
:102B100094F843302268003B18BF012392062BD45F
:102B200004F1430241463846C84701301ED02368AD
:102B3000226903F00603042B02BFE5683368ED1A2F
:102B4000A3680CBF25EAE57500259342C4BF9B1A14
:102B5000ED1800261A34B5421AD1002008E00123EE
:102B6000524641463846C847013003D14FF0FF3046
:102B7000BDE8F0870135C6E7E1185A1C302081F81E
:102B80004300224494F8451082F843100233C7E70B
:102B90000123224641463846C8470130E6D0013677
:102BA000D9E700002DE9FF470F7E0C9E782F914654
:102BB00080460C469A4601F1430207D8622F0AD894
:102BC000002F00F0D180582F00F0B88004F14206A9
:102BD00084F842703AE0A7F16303152BF6D801A1FF
:102BE00051F823F03D2C0008512C0008CD2B000893
:102BF000CD2B0008CD2B0008CD2B0008512C000850
:102C0000CD2B0008CD2B0008CD2B0008CD2B0008C4
:102C10004F2D00087B2C0008092D0008CD2B000843
:102C2000CD2B0008712D0008CD2B00087B2C00084F
:102C3000CD2B0008CD2B0008112D000833681A1D7C
:102C40001B68326004F1420684F8423001239CE0A4
:102C500033682068191D3160060601D51D6803E040
:102C60004506FBD5B3F90050002D03DA2D236D4244
:102C700084F8433058480A2311E021683368080675
:102C800053F8045B02D4490648BFADB26F2F5248D7
:102C9000336014BF0A230823002184F843106668B8
:102CA000A660002E05DB21682E4321F0040121607F
:102CB0004BD01646B5FBF3F103FB1157C75D06F881
:102CC000017D2F46BB420D46F4D9082B0BD123685A
:102CD000DF0708D5236961689942DEBF302306F813
:102CE000013C06F1FF36921B2261CDF800A04B4655
:102CF00003AA21464046FFF7E7FE01304AD14FF0D4
:102D0000FF3004B0BDE8F087236843F02003236060
:102D10003248782784F84570236831681F0651F8D7
:102D2000045B02D45F0648BFADB23160D90744BF2F
:102D300043F0200323601DB11023ADE72648E9E7E7
:102D4000236823F020032360F6E71646BDE73368C7
:102D500025686169181D30602E061B6801D5196051
:102D600002E06806FBD51980002323611646BCE704
:102D700033681A1D32601E68626800213046FDF714
:102D80003FFA08B1801B606063682361002384F808
:102D90004330AAE72369324649464046D0470130CE
:102DA000ADD023689B0713D4E068039B9842B8BF5B
:102DB0001846A6E70123324649464046D04701302F
:102DC0009DD00135E36803995B1AAB42F2DCEBE777
:102DD000002504F11906F5E7EE3C0008FF3C000869
:102DE000B1F90C20F8B5160705460C4654D44B68CB
:102DF000002B02DC0B6C002B48DDE66A002E45D070
:102E0000002312F480522F68216A2B6030D0626D4B
:102E1000A389590705D56368D21A636B0BB1236C7C
:102E2000D21A0023E66A216A2846B047431CA389C8
:102E300006D129681D292BD8284ACA40D60727D58C
:102E400000226260D9042269226004D5421C01D1AB
:102E50002B6803B96065616B2F60B9B104F144035D
:102E6000994202D02846FFF7D7FB002363630DE0A9
:102E700001232846B0470246501CC9D12B68002BBD
:102E8000C6D01D2B01D0162B1DD12F60002021E0B4
:102E900043F040031BB21AE00F69002FF6D09307EE
:102EA0000E6808BF4B690F6018BF0023F61B8B60CC
:102EB000002EEBDD216AD4F828C033463A46284676
:102EC000E047002807DCB4F90C3043F04003A3814D
:102ED0004FF0FF30F8BD0744361AE9E70100402003
:102EE00038B50B6905460C4613B90025284638BD90
:102EF00018B1036A0BB9FFF7E9F9B4F90C30002BEC
:102F0000F3D0626ED00704D4990502D4A06DFFF708
:102F100062FB28462146FFF763FF636EDA0705462A
:102F2000E4D4A3899B05E1D4A06DFFF755FBDDE751
:102F30000EB403B5014603AB054853F8042B0068F3
:102F4000019300F09BF802B05DF804EB03B070470A
:102F500018000020884210B501EB020402D9844217
:102F6000234607D8431EA14208D011F8012B03F8CD
:102F7000012FF8E7024401468A4200D110BD13F840
:102F8000014D02F8014DF7E738B5064D0023044620
:102F900008462B6000F026FB431C02D12B6803B1CE
:102FA000236038BD980200200A44914200F1FF33AB
:102FB00000D1704710B511F8014B03F8014F914251
:102FC000F9D110BD08B5062000F02CFA012000F060
:102FD0001FFB2DE9F041074614460D4621B9BDE817
:102FE000F0411146FFF78CBB2AB9FFF715FB2546C8
:102FF0002846BDE8F08100F031FA8442064602D846
:10300000B4EB500FF4D821463846FFF779FB8046E1
:1030100008B94546ECE7B4422246294628BF324665
:10302000FFF7C2FF29463846FFF7F6FAF1E7936843
:10303000013B002B10B4936007DA9469A34201DBD3
:103040000A2902D110BC00F031B91368581C106075
:103050001970084610BC7047F8B506460F4614466E
:10306000D518AC4201D1002007E014F8011B3A4604
:103070003046FFF7DCFF431CF3D1F8BD2DE9F04FDC
:103080000D469DB014469846064618B1036A0BB922
:10309000FFF71CF96B6ED90705D4AB899A0502D4EA
:1030A000A86DFFF798FAAB891B0701D52B699BB96F
:1030B0002946304600F038F970B16B6EDC0704D554
:1030C0004FF0FF301DB0BDE8F08FAB899805F7D405
:1030D000A86DFFF781FAF3E70023099320238DF809
:1030E0002930CDF80C803023DFF8AC818DF82A3000
:1030F0004FF0010923469A4613F8012B0AB1252AFD
:10310000F9D1BAEB040B0BD05B4622462946304678
:10311000FFF7A2FF013000F0A780099A5A440992F4
:103120009AF80030002B00F09F8000234FF0FF3210
:10313000CDE905230AF1010A049307938DF8533072
:103140001A935446052214F8011B5348FDF758F80A
:10315000049AD8B9D10644BF20238DF85330130701
:1031600044BF2B238DF853309AF800302A2B15D00A
:10317000079A544600204FF00A0C214611F8013BF3
:10318000303B092B4BD9B0B1079214E0A0EB0803F8
:1031900009FA03F313430493A246D2E7039B191DD4
:1031A0001B680391002BBBBF5B4242F002020793F6
:1031B0000793B8BF049223782E2B0AD163782A2B69
:1031C00032D1039B1A1D1B68039243EAE373023456
:1031D0000593DFF8C8A0217803225046FDF710F8C8
:1031E00038B1049BA0EB0A00402282401343013413
:1031F000049314F8011B2A488DF828100622FCF7C6
:10320000FFFF00283FD0274B1BBB039B073323F056
:10321000070308330393099B3B4409936AE70CFBBC
:1032200002320C460120A8E7002301340593194619
:103230004FF00A0C204610F8012B303A092A03D926
:10324000002BC6D00591C4E70CFB012104460123E5
:10325000F0E703AB00932A46134B04A93046AFF3C3
:1032600000800746781CD6D16B6ED90705D4AB8990
:103270009A0502D4A86DFFF7AFF9AB895B063FF55D
:103280001FAF09981EE703AB00932A46064B04A91B
:103290003046FFF787FCE4E7DD3C0008E33C00082C
:1032A000E73C00080000000059300008F8B50E4661
:1032B0001446054618B1036A0BB9FFF707F8A3696E
:1032C000A360A3891A0701D5236943B9214628467B
:1032D00000F02AF818B14FF0FF373846F8BD2368E0
:1032E0002269981A6369F6B28342374605DC2146A3
:1032F0002846FFF7F5FD0028EDD1A368013BA36048
:1033000023685A1C22601E706269431C9A4204D0D2
:10331000A389DB07E1D50A2EDFD121462846FFF736
:10332000DFFD0028D9D0D6E738B5294B0546186807
:103330000C4618B1036A0BB9FEF7C8FFB4F90C309C
:10334000190722D4DA0607D409222A6043F0400381
:10335000A3814FF0FF3033E0580712D5616B41B1C4
:1033600004F14403994202D02846FFF755F900239F
:103370006363A38923F02403A3810023636023698B
:103380002360A38943F00803A38123694BB9A38970
:1033900003F42073B3F5007F03D02146284600F0E4
:1033A0008BF8B4F90C3013F001020AD00022A260AD
:1033B00062695242A261226942B913F08000C5D10C
:1033C00038BD990758BF6269A260F4E70020F7E7AB
:1033D000180000201F2938B505460C4604D91623CD
:1033E00003604FF0FF3038BDC26B12B152F821308C
:1033F0004BB9284600F030F8224601462846BDE881
:10340000384000F017B8012B0AD0591C03D11623FD
:1034100003600120E7E7002142F824102046984786
:103420000020E0E7024B01461868FFF7D3BF00BF5A
:103430001800002038B5074D002304460846114601
:103440002B6000F0B7F8431C02D12B6803B1236056
:1034500038BD00BF9802002000F09CB851F8043C31
:10346000181F002BBCBF0B58C018704770B50C4616
:10347000B1F90E10002996B015461E460DDAA38943
:1034800013F0800F4FF0000114BF40234FF480630E
:10349000002031602B6016B070BD6A4600F048F81D
:1034A0000028ECDB019901F47041A1F50053594269
:1034B00059414FF48063EBE78B89F7B59D070646CA
:1034C0000C4607D504F147032360236101236361A0
:1034D00003B0F0BD01AB6A46FFF7C8FF009F054689
:1034E00039463046FFF70CF948B9B4F90C309A0563
:1034F000EED423F0030343F00203A381E2E7A389A0
:10350000206043F08003A381019BC4E904075BB101
:10351000B4F90E10304600F01DF828B1A38923F04D
:10352000030343F00103A381A3891D43A581CFE7D2
:1035300038B5074D00230446084611462B6000F0BD
:1035400021F8431C02D12B6803B1236038BD00BFB2
:103550009802002038B5064D0023044608462B602B
:1035600000F020F8431C02D12B6803B1236038BD62
:1035700098020020024B58221A604FF0FF3070472B
:1035800098020020024B58221A604FF0FF3070471B
:1035900098020020024B58221A604FF0FF3070470B
:1035A00098020020024B58221A600020704700BF8A
:1035B00098020020024B58221A604FF0FF307047EB
:1035C00098020020024B58221A604FF0FF307047DB
:1035D00098020020024B58221A604FF0FF307047CB
:1035E00098020020044A1168034609B90349116092
:1035F0001068034413607047A8020020B002002046
:10360000024B58221A604FF0FF307047980200209A
:10361000FEE70000F8B500BFF8BC08BC9E46704746
:0C362000F8B500BFF8BC08BC9E4670471F
:10362C000D0A0D0A000000003D3D3D3D3D3D3D3D78
:10363C003D3D3D3D3D3D3D3D3D3D3D3D3D3D3D3DAE
:10364C003D3D3D3D3D3D3D3D3D3D3D3D3D3D3D3D9E
:10365C000D0A00002020466C69707065722D535461
:10366C004D333220496E746567726174696F6E20D8
:10367C004C6162730D0A0000202053656C65637405
:10368C002061206D6F64653A0D0A00002D2D2D2DE3
:10369C002D2D2D2D2D2D2D2D2D2D2D2D2D2D2D2D4E
:1036AC002D2D2D2D2D2D2D2D2D2D2D2D2D2D2D2D3E
:1036BC002D2D2D2D0D0A000020205B25645D203E54
:1036CC003E202573203C3C0D0A00000020205B2589
:1036DC00645D2020202025730D0A000053656E6464
:1036EC00202731272D273527206F722070726573A4
:1036FC0073205553455220627574746F6E20746F2D
:10370C00206379636C652E0D0A000000507265739E
:10371C0073205553455220627574746F6E206C6F14
:10372C006E6720283E31732920746F20636F6E669C
:10373C0069726D2E0D0A00000D0A20204D6F646514
:10374C00202564206973206E6F742079657420695C
:10375C006D706C656D656E7465642E0D0A000000ED
:10376C0020204F6E6C79204D6F6465203120697379
:10377C0020617661696C61626C652072696768743E
:10378C00206E6F772E0D0A000D0A20204D6F646598
:10379C00202564206E6F742079657420696D706CBF
:1037AC00656D656E7465642E0D0A00000D0A537408
:1037BC00617274696E67204D6F64652025643A20D0
:1037CC0025730D0A000000004D6F6465206E6F7448
:1037DC0020696D706C656D656E74656420796574B7
:1037EC002E0D0A000D0A2D2D2D204D6F64652065C0
:1037FC0078697465642E2052657475726E696E6793
:10380C0020746F206D656E752E202D2D2D0D0A00E8
:10381C005541525420436F6D6D616E6420436F6E41
:10382C00736F6C65000000004750494F2052656D66
:10383C006F746520436F6E74726F6C00414443204B
:10384C0053656E736F722044617368626F6172644A
:10385C000000000053504920436F6D6D756E696315
:10386C006174696F6E204C696E6B000043757374E4
:10387C006F6D20466C697070657220417070204DC0
:10388C006F6465000D0A2D2D2D2055415254204397
:10389C006F6D6D616E6420436F6E736F6C65202D60
:1038AC002D2D0D0A00000000202068656C70202072
:1038BC0020202020202020202020202053686F77DB
:1038CC0020746869732068656C70206D6573736112
:1038DC0067650D0A00000000202073746174757315
:1038EC0020202020202020202020202053686F77AB
:1038FC0020757074696D6520616E64204C454420A0
:10390C007374617465730D0A0000000020206C65EF
:10391C0064203C636F6C6F723E203C6F703E2020C5
:10392C00436F6E74726F6C20616E204C45440D0AAF
:10393C0000000000202020202020636F6C6F727329
:10394C003A20677265656E2C206F72616E67652C0C
:10395C00207265642C20626C75652C20616C6C0D7A
:10396C000A0000002020202020206F70733A2020B5
:10397C0020206F6E2C206F66662C20746F67676C2E
:10398C00650D0A0020206563686F203C74657874AF
:10399C003E202020202020204563686F207465780D
:1039AC0074206261636B20746F207465726D696E34
:1039BC00616C0D0A00000000202072657365742094
:1039CC0020202020202020202020202052657475CB
:1039DC00726E20746F206D6F64652073656C656307
:1039EC0074696F6E0D0A00000D0A25730D0A000034
:1039FC000D0A55736167653A206563686F203C74E6
:103A0C006578743E0D0A00004F4E00006F6666002C
:103A1C000D0A557074696D653A20256C756D2025FD
:103A2C006C75730D0A0000004C4544733A2000007D
:103A3C002025733D25730000200000000D0A5573EE
:103A4C006167653A206C6564203C636F6C6F723EF5
:103A5C00203C6F6E2F6F66662F746F67676C653EC8
:103A6C000D0A0000436F6C6F72733A2067726565C4
:103A7C006E2C206F72616E67652C207265642C2031
:103A8C00626C75652C20616C6C0D0A00616C6C00AD
:103A9C000D0A556E6B6E6F776E20636F6C6F723A9A
:103AAC002025730D0A0000006F6E00000D0A4F4BAD
:103ABC000D0A0000746F67676C6500000D0A556E87
:103ACC006B6E6F776E206F7065726174696F6E3A92
:103ADC002025732028757365206F6E2F6F66662FF7
:103AEC00746F67676C65290D0A00000068656C705F
:103AFC000000000073746174757300006C656400E1
:103B0C006563686F000000007265736574000000E7
:103B1C000D0A52657475726E696E6720746F206D34
:103B2C006F64652073656C656374696F6E2E2E2EE1
:103B3C000D0A00000D0A556E6B6E6F776E20636F69
:103B4C006D6D616E643A2025732028747970652040
:103B5C002768656C702720666F7220636F6D6D61CE
:103B6C006E6473290D0A000020204D6F64652031AE
:103B7C003A205541525420436F6D6D616E64204361
:103B8C006F6E736F6C650D0A0000000054797065E0
:103B9C00202768656C702720666F722061766169DA
:103BAC006C61626C6520636F6D6D616E64732E0D5C
:103BBC000A0000000D0A3E20000000003E2000001C
:103BCC0008200800677265656E0000006F72616EF8
:103BDC006765000072656400626C7565000000002A
:103BEC001C380008343800084838000860380008D1
:103BFC0078380008000000000102030400000000F7
:103C0C00000000000102030406070809D03B00086D
:103C1C00D83B0008E03B0008E43B00080010002003
:103C2C00004000805245454E54206D616C6C6F63B2
:103C3C0020737563636565646564002F6275696CD8
:103C4C00642F676E752D746F6F6C732D666F722D8C
:103C5C0073746D33325F31332E332E72656C312EAB
:103C6C0032303234303932362D313731352F7372A0
:103C7C00632F6E65776C69622F6E65776C69622F46
:103C8C006C6962632F737472696E672F73747274CC
:103C9C006F6B2E63002C2066756E6374696F6E3AC1
:103CAC002000617373657274696F6E202225732214
:103CBC00206661696C65643A2066696C6520222512
:103CCC0073222C206C696E65202564257325730A7C
:103CDC0000232D302B2000686C4C00656667454630
:103CEC00470030313233343536373839414243446A
:103CFC0045460030313233343536373839616263FA
:043D0C006465660084
:083D1000C0C4FF7F01000000A8
:043D1800B5010008E9
:043D1C009101000809
:103D20000024F4000100000010000000000000006A
:103D3000030000005C0100201C00002000000000C7
:103D40005C010020C40100202C02002000000000C3
:103D50000000000000000000000000000000000063
:103D60000000000000000000000000000000000053
:103D70000000000000000000000000000000000043
:083D800000000000000000003B
:04000005080021616D
:00000001FF
